:020000040800F2
:10000000D80E0020C10100080D0E00081D0C0008CC
:10001000090E0008A502000867140008000000008F
:100020000000000000000000000000000D100008AB
:100030004106000800000000C10E00087D11000804
:10004000DB010008DB010008DB010008DB01000820
:10005000DB010008DB010008DB010008DB01000810
:10006000DB010008DB010008DB010008DB01000800
:10007000DB010008DB010008DB010008DB010008F0
:1000800089030008DB010008DB010008DB01000830
:10009000DB010008DB010008DB010008DB010008D0
:1000A000DB010008DB010008DB010008DB010008C0
:1000B000DB010008DB010008DB010008DB010008B0
:1000C000DB010008DB010008DB010008DB010008A0
:1000D000DB0100086D120008DB010008DB010008ED
:1000E000DB010008DB010008DB010008DB01000880
:1000F000DB010008DB010008DB010008DB01000870
:10010000DB010008DB010008DB010008DB0100085F
:10011000DB010008DB010008DB010008DB0100084F
:10012000DB010008DB010008DB010008DB0100083F
:10013000DB010008DB010008DB010008DB0100082F
:10014000DB010008DB010008DB010008DB0100081F
:10015000DB010008DB010008DB0100089512000844
:10016000DB010008DB010008DB010008DB010008FF
:10017000DB010008DB010008DB010008DB010008EF
:10018000DB010008DB010008DB010008DB010008DF
:10019000DB010008DB010008DB010008DB010008CF
:1001A000DB010008DB010008DB010008DFF80CD0F0
:1001B00000F066F800480047611F0008D80E0020D4
:1001C0000648804706480047FEE7FEE7FEE7FEE7F1
:1001D000FEE7FEE7FEE7FEE7FEE7FEE7ED110008BB
:1001E000AD010008D2B201E000F8012B491EFBD29C
:1001F00070470022F6E710B513460A460446194632
:10020000FFF7F0FF204610BD421E12F8013F002B01
:10021000FBD111F8013B02F8013B002BF9D17047EB
:1002200030B505462A460B4612F8010B13F8014B70
:1002300008B1A042F8D01CB1002802D06D1CF1E733
:10024000284630BD421C10F8011B0029FBD1801A42
:10025000704730B50B46014600202022012409E0FA
:1002600021FA02F59D4205D303FA02F5491B04FA6F
:1002700002F52844151EA2F10102F1DC30BD000098
:10028000064C074D06E0E06840F0010394E80700E3
:1002900098471034AC42F6D3FFF78CFFEC2A0008E5
:1002A0000C2B000800BFFEE7DD2005E00022411E08
:1002B00089B20846024B5A540028F7D17047000013
:1002C000D9070020532005E00022411E89B20846CC
:1002D000024B5A540028F7D17047000060060020F6
:1002E000D32005E00022411E89B20846024B5A5431
:1002F0000028F7D170470000310900204C2005E0AC
:100300000022411E89B20846024B5A540028F7D1F8
:1003100070470000B2060020512005E00022411E77
:1003200089B20846024B5A540028F7D170470000A2
:10033000B50800202D2005E00022411E89B20846A4
:10034000024B5A540028F7D17047000005090020DD
:10035000D32005E00022411E89B20846024B5A54C0
:100360000028F7D170470000030A0020DD2005E0D7
:100370000022411E89B20846024B5A540028F7D188
:1003800070470000FD06002010B500F095FA10BD82
:100390000246094B9A4201D2084801E0064810384B
:1003A00001F000531BB1064B0B40C36002E0044B4D
:1003B0000B40836070470000106402400060024000
:1003C0007D0F7D0F21B1026842F00102026003E05F
:1003D000026822F00102026070470000016821F00B
:1003E000010101600021016041608160C160016123
:1003F000212141614A49884204D13D21484A103AAD
:1004000091608CE046491831884205D14FF47461FF
:10041000434A103A916082E041493031884205D127
:100420004FF474113E4A103A916078E03C494831EB
:10043000884205D14FF07461394A103A91606EE0FC
:1004400037496031884204D13649354A103AD16083
:1004500065E033497831884204D13349304A103A53
:10046000D1605CE02E499031884204D12F492C4A5A
:10047000103AD16053E02A49A831884205D14FF0A3
:100480003D51274A103AD16049E02949884204D1B8
:100490003D21274A083A116041E025491831884238
:1004A00005D14FF47461224A083A116037E02049BF
:1004B0003031884205D14FF474111D4A083A116059
:1004C0002DE01B494831884205D14FF07461184A2C
:1004D000083A116023E016496031884204D111497D
:1004E000134A121F11601AE011497831884204D171
:1004F0000D490F4A121F116011E00D4990318842D9
:1005000004D10A490A4A121F116008E00849A831BB
:10051000884204D14FF03D51054A121F11607047C7
:10052000106002403D000020400F002000003D20F0
:1005300010640240014600200A6802F001020AB17C
:10054000012000E00020704770B502460020002422
:100550000025124EB24201D2114B01E00F4B103B6D
:10056000104E0E4036B11E2606EAD124166806EA61
:10057000040502E0566906F0800501F000560EB150
:100580005C6800E01C68084E344004EA010616B1BD
:100590000DB1012000E0002070BD00001064024099
:1005A000006002403C0F3C0F7D0F7D0F10B501F045
:1005B00080034BB122B1436943F08003436103E000
:1005C000436923F08003436180290BD02AB103687B
:1005D00001F01E042343036004E0036801F01E04DD
:1005E000A343036010BD000010B500220268134B46
:1005F0001A40CC680B6823434C6923438C6923431E
:10060000CC6923430C6A23434C6A23438C6A2343FB
:100610004C6B23438C6B23431A430260426922F0E4
:100620000702D1E90B3423431A4342610B6943604B
:100630004B6883608B68C36010BD00003F801CF076
:100640007047000000B587B00121084600F03AFC71
:100650000121102000F056FC00208DF81A00012026
:100660008DF81B0002208DF819008DF8180000028B
:10067000059005A91B4800F045F802208DF81800E8
:100680004002059005A9174800F03CF807220A210E
:10069000144800F07FF807220921124800F07AF888
:1006A0004FF4E13001900020ADF80800ADF80A00E9
:1006B000ADF80C00ADF810000C20ADF80E0001A94B
:1006C000094800F05DFE00F0A2FB012240F2255136
:1006D000054800F02FFE0121034800F0DFFD07B0C0
:1006E00000BD0000000002400010014001B50449B7
:1006F0000098086000BF024800680028FBD108BDD0
:100700002C000020F0B50A4600210023002400BF81
:100710003DE0012505FA01F3156805EA03049C4252
:1007200034D105684F000326BE40B54305601579F6
:100730004E00B5400668354305601579012D02D09D
:100740001579022D16D185684F000326BE40B543AA
:10075000856055794E00B5408668354385604568AB
:1007600001268E40B5434560456896798E40B6B205
:1007700035434560C5684F000326BE40B543C5609C
:10078000D5794E00B540C6683543C560491C10296F
:10079000BFD3F0BDF0B5002300244D07ED0E02FAE3
:1007A00005F3CE1000F1200555F826504E07F70E40
:1007B0000F26BE40B543CF1000F1200646F8275063
:1007C000CE1000F1200555F8265045EA0304CE105E
:1007D00000F1200545F82640F0BD10B500F086F880
:1007E00000F002F810BD000000B58FB001214805EF
:1007F00000F068FB2248FFF7F1FD00BF2048FFF73B
:1008000099FE0028FAD14FF0006000901D48019039
:100810001D480290002003904FF4007004900020C7
:1008200005904FF4806006900020079008904FF4E8
:100830008070099000020A9000200B9003200C9019
:1008400000200D900E9069460D48FFF7CDFE00F098
:100850001DF8012210210A48FFF7A8FE01210848CF
:10086000FFF7B0FD00BF0648FFF764FE0128FAD18C
:10087000012240210348001F00F01CFD0FB000BD05
:1008800088600240044400406004002008B54FF432
:10089000C06000F00BFB10208DF8000001208DF8E7
:1008A000010000208DF8020001208DF80300684649
:1008B00000F0C0FA08BD000010B509490948FFF76B
:1008C00043FE60B101200849087005490548FFF75B
:1008D0005FFD00BF00BF00BF00BF02F03DF810BDCC
:1008E00000880020886002403200002000B587B0F8
:1008F0000121084600F0E6FA0121480400F0F2FA6E
:10090000072203211B48FFF745FF07220221194850
:10091000FFF740FF00208DF81A0001208DF81B0022
:1009200002208DF818008DF819000420059005A903
:100930001048FFF7E7FE0820059005A90D48FFF7CE
:10094000E1FE4FF4164001900020ADF80800ADF82C
:100950000A00ADF80C00ADF810000C20ADF80E0048
:1009600001A9054800F00CFD0121034800F096FCA8
:1009700007B000BD000002400044004008B54FF43D
:10098000E06000F093FA47208DF8000001208DF818
:1009900001008DF802008DF80300684600F04AFA65
:1009A00008BD000000B587B00121042000F08AFADC
:1009B0000121202000F0A6FA082207212148FFF794
:1009C000E9FE082206211F48FFF7E4FE00208DF80B
:1009D0001A0001208DF81B0002208DF8180040201D
:1009E000059002208DF8190005A91648FFF78AFE28
:1009F0008020059002208DF8180005A91148FFF706
:100A000081FE4FF4E13001900020ADF80800ADF810
:100A10000A00ADF80C00ADF810000C20ADF80E0087
:100A200001A9094800F0ACFCFFF7A8FF012240F241
:100A30002551054800F07EFC0121034800F02EFC02
:100A400007B000BD00080240001401400FB430B5EB
:100A500085B009A800906FE0089800785C281CD148
:100A60000898401C089000786E2809D072280FD191
:100A70000D21354800F0F3FC0898401C08900BE06D
:100A80000A21314800F0EBFC0898401C089003E074
:100A90000898401C089000BF47E008980078252877
:100AA0003CD10898401C08900078642818D073281E
:100AB00033D1009810C800900BE02178224800F054
:100AC000CEFC00BF8021204800F0FDFB0028F9D0BB
:100AD000641C20780028F0D10898401C08901CE085
:100AE000009820C800900A2201A9284601F006FAC1
:100AF00001AC0BE02178144800F0B1FC00BF80216C
:100B0000114800F0E0FB0028F9D0641C2078002890
:100B1000F0D10898401C089000BF06E0089810F833
:100B2000011B0890084800F09AFC00BF802106488D
:100B300000F0C9FB0028F9D00898007800288BD174
:100B400005B030BC5DF814FB001401402DE9F843FA
:100B500014212548FFF74DFB00F0BEFD4FF4FA725B
:100B600022A123A000F072FE10B10120BDE8F8839D
:100B7000684600F04DFE05460026002700242CE0C4
:100B8000285D0A2801D12646641C285D0D2823D142
:100B9000002E21DD2746B81B401EC0B200909DF8F4
:100BA00000000F2818DB002005E0411C3144695C7F
:100BB0000D4A1154401C9DF800108842F5DB00BF1F
:100BC0000948FFF73FFB8046424607490AA000F06C
:100BD0004DFC00BF0020C9E7641C9DF80000844262
:100BE000CEDB0120C2E70000380000204F4B0000A0
:100BF00041542B47534E0D000D0A203E3E20BBF1C1
:100C0000C8A1494D4549B3C9B9A6A3BA2025732047
:100C1000B3A4B6C8A3BA25640000000000BFFEE775
:100C2000F8B514212348FFF7E4FA00BF00BF00F035
:100C300053FD4FF4FA7220A120A000F007FE08B186
:100C40000120F8BD684600F0E3FD054600260024BB
:100C50002AE0285D2C2807D1601C0446285C222845
:100C600002D1601C04460646285D22281BD1002EB6
:100C700019DDA01B0B2816DB002004E08119695C3C
:100C80000C4A1154401CA11B8142F7DC00BF0948EB
:100C9000FFF7D8FA07463A4606490BA000F0E6FBF4
:100CA00000BF0020CDE7641C9DF800008442D0DB2B
:100CB0000020C6E74C0000204F4B000041542B435E
:100CC0004E554D0D000000000D0A203E3E20BBF1A8
:100CD000C8A1CAD6BBFABAC5B3C9B9A6A3BA257307
:100CE00020B3A4B6C8A3BA256400000070B50446BA
:100CF0004FF400600D49088347F23050FFF7F6FCCF
:100D0000002510E04FF400600849488347F2305056
:100D1000FFF7ECFC4FF400600449088347F23050C1
:100D2000FFF7E4FC6D1CA542ECDB70BD0000024047
:100D300070B504464FF400600D49088343F69820CF
:100D4000FFF7D4FC002510E04FF400600849488309
:100D500043F69820FFF7CAFC4FF40060044908836B
:100D600043F69820FFF7C2FC6D1CA542ECDB70BD7A
:100D70000000024070B504464FF480500D490883CE
:100D800047F23050FFF7B2FC002510E04FF48050DE
:100D90000849488347F23050FFF7A8FC4FF48050D1
:100DA0000449088347F23050FFF7A0FC6D1CA542B0
:100DB000ECDB70BD000002401CB50121084600F0CC
:100DC00081F84FF40060009001208DF804000020AD
:100DD0008DF8060001208DF8070000208DF8050031
:100DE00069460848FFF78EFC4FF480500090694632
:100DF0000448FFF787FC4FF4006002490883400075
:100E000008831CBD0000024000BFFEE7704708B524
:100E10004FF4A06000F04AF825208DF80000012072
:100E20008DF801008DF802008DF80300684600F08F
:100E300001F808BD70B5002100230F22C4781CB34F
:100E4000174C246804F4E064C4F5E064C4F307219B
:100E5000C1F10404E3B20A4144789C40E1B28478D1
:100E6000144021430C07210E0E4C0578615504787F
:100E700004F01F050124AC4005786D11AD0005F1AB
:100E8000E025C5F8004109E0047804F01F050124BD
:100E9000AC40054D0678761145F8264070BD00003F
:100EA0000CED00E000E400E080E100E002490143D5
:100EB000024A1160704700000000FA050CED00E0E6
:100EC0007047000029B1064A12680243044B1A60B9
:100ED00004E0034A12688243014B1A607047000025
:100EE0003038024029B1064A12680243044B1A60A6
:100EF00004E0034A12688243014B1A607047000005
:100F00004038024029B1064A12680243044B1A6075
:100F100004E0034A12688243014B1A6070470000E4
:100F200044380240F0B500210022002402250026AA
:100F30000223324F3F6807F00C0121B1042905D08C
:100F4000082937D105E02E4F076036E02D4F0760A6
:100F500033E02A4F3F1F3F68C7F38056274F3F1F9C
:100F60003F6807F03F036EB1264FB7FBF3F7DFF89A
:100F70008CC0ACF1040CDCF800C0CCF3881C07FB7F
:100F80000CF40CE01E4FB7FBF3F7DFF870C0ACF1C8
:100F9000040CDCF800C0CCF3881C07FB0CF4174FE2
:100FA0003F1F3F68C7F301477F1C7D00B4FBF5F787
:100FB000076002E0124F076000BF00BF0F4F3F689D
:100FC00007F0F0010909104F7A5C0768D7404760C5
:100FD0000A4F3F6807F4E051890A0B4F7A5C476873
:100FE000D7408760054F3F6807F46041490B064FC3
:100FF0007A5C4768D740C760F0BD000008380240FF
:101000000024F40040787D011400002070470000A7
:101010000CB50020019000904148006840F48030F9
:101020003F49086000BF3E48006800F4003000906F
:101030000198401C0190009818B90198B0F5A04F94
:10104000F1D13748006800F4003010B10120009061
:1010500001E0002000900098012860D13048403025
:10106000006840F080502E49403108602D480068EB
:1010700040F440402B49086029480830006828495E
:10108000083108600846006840F4004008600846DF
:10109000006840F4A05008602348091F0860081F3A
:1010A000006840F08070091F086000BF1C4800689D
:1010B00000F000700028F9D01A48006840F4803031
:1010C0001849086000BF1748406800F480300028C5
:1010D000F9D01448006840F400301249086000BF9D
:1010E0001048406800F400300028F9D040F2057044
:1010F0000E4908600A480830006820F003000849DB
:10110000083108600846006840F00200086000BF2F
:1011100003480830006800F00C000828F8D10CBD26
:101120000038024000700040195A4007003C02405D
:10113000012080F3138800BF00BF00BF00BF00BFC5
:1011400000BFBFF34F8F00BF00BF00BF094800685A
:1011500000F4E06008490843001D0649086000BF2C
:1011600000BF00BFBFF34F8F00BF00BF00BF00E054
:1011700000BFFDE70CED00E00000FA0510B500F03F
:1011800069F810BD30B515480068154AB0FBF2F19A
:10119000481EB0F1807F01D301201BE0481E4FF0B4
:1011A000E022506150170F22002807DA13071D0EA6
:1011B0000C4B00F00F04241F1D5503E013071C0EF9
:1011C000094B1C5400BF00204FF0E0229061072023
:1011D0001061002008B100BFFEE730BD0000002014
:1011E000A086010018ED00E000E400E010B515480D
:1011F000006840F47000134908601348006840F02C
:1012000001001149086000200F49083108600E48AC
:1012100000680E4908400C4908600D48091D086027
:10122000081F006820F48020091F0860002006497C
:101230000C310860FFF7ECFE4FF000600149803987
:10124000086010BD88ED00E000380240FFFFF6FEA8
:10125000103000240448006820B103480068401E94
:1012600001490860704700002C00002010B540F2D2
:101270002551064800F034F838B1044800F0EAF887
:10128000C4B2214602A000F0F1F810BD00100140E8
:101290002563000010B500F0FFF910BD21B182896F
:1012A00042F40052828104E082894DF6FF731A40B5
:1012B000828170471AB1838A0B43838202E0838A5A
:1012C0008B438382704702460020B1F5007F00D136
:1012D00000BF13880B400BB1012000E000207047D5
:1012E00070B50246002400230025002040F66A164F
:1012F000B14200D100BFC1F3421501F01F03012626
:1013000006FA03F3012D02D19689334006E0022D3F
:1013100002D1168A334001E0968A33400C1201262E
:1013200006FA04F41688344013B10CB1012000E031
:10133000002070BDF0B503460024002600250020E3
:1013400040F66A17B94200D100BF1846C1F34214F3
:1013500001F01F06012707FA06F5012C01D10C3018
:1013600004E0022C01D1103000E014301AB10768FB
:101370002F43076002E00768AF430760F0BD00003D
:101380002DE9FF4705460E460024A14600BFA046B2
:10139000B08900B100BF2C8A24F44054F088044383
:1013A0002C82AC8941F20C608443B08831890843B7
:1013B000718908430443AC81AC8A24F44074B08939
:1013C0000443AC826846FFF7ADFD2048854202D059
:1013D0001F48854202D1DDF80C9001E0DDF808904D
:1013E000A88900F4004040B109EBC90000EB0910E6
:1013F00031684900B0FBF1F707E009EBC90000EBE9
:10140000091031688900B0FBF1F76420B7FBF0F0F8
:1014100004012009642101FB1078A88900F4004030
:1014200040B1322000EBC800B0FBF1F000F0070043
:10143000044308E0322000EB08106421B0FBF1F017
:1014400000F00F0004432C81BDE8FF87001001402D
:101450000014014001468888C0F308007047C1F3BA
:1014600008028280704700BFFEE700000FB4054B02
:1014700010B503A9044A029800F02CF810BC5DF8DE
:1014800014FB000031170008340000200FB4084B93
:1014900010B504A902AA039800F01CF8044602A99A
:1014A000002000F0F3F8204610BC5DF814FB0000AB
:1014B0008D16000802E008C8121F08C1002AFAD1E0
:1014C00070477047002001E001C1121F002AFBD1C4
:1014D000704700002DE9FF4F8BB09A460F46054636
:1014E000002606E025280BD052460D9990476D1C2A
:1014F000761C28780028F5D10FB03046BDE8F08F73
:101500000024A0460122604900E0044315F8013F91
:10151000203B02FA03F00842F7D128782E2817D191
:1015200015F8010F44F004042A280ED06FF02F02A2
:101530002878A0F1300109290AD808EB880102EBCC
:10154000410100EB01086D1CF2E757F8048B6D1C9C
:10155000287869283ED006DC0028CDD063280BD03F
:10156000642804D136E0732810D075284BD0524639
:101570000D999047761C85E017F8040B8DF8000054
:1015800000208DF80100E946012003E057F8049B94
:101590004FF0FF3061074FF0000401D40AE0641CF3
:1015A00044450DDA8442FADB19F804100029F6D11B
:1015B00006E0641C8442FCDB19F804100029F8D111
:1015C000264404E019F8010B52460D999047641E19
:1015D000F8D257E001CF4FF00A0B002802DA404260
:1015E0002D2102E0210504D52B218DF824100121A5
:1015F00003E0E10705D02021F7E70DF1200908916C
:101600000CE00021F9E701CF4FF00A0BF9E759464A
:10161000FEF71FFE01F1300209F8012D0028F6D176
:10162000ADEB090000F1200B600701D44FF0010879
:10163000D84502DDA8EB0B0000E000208046002426
:1016400006E009A85246005D0D999047641C761C7F
:1016500008988442F5DB04E0302052460D9990470B
:10166000761CB8F10001A8F10108F5DC05E019F8D5
:10167000010B52460D999047761CBBF10001ABF16E
:10168000010BF4DC6D1C34E7092801000A68531CC7
:101690000B6010707047000010B50C480088B0F562
:1016A000007F11DA40F225510948FFF70CFE58B1CE
:1016B0000748FFF7CFFE0749044A128888540348B9
:1016C0000088401C0149088010BD00003000002047
:1016D000001401406002002040F201200021064A6F
:1016E000118005E00022411E89B20846034B5A547E
:1016F0000028F7D170470000300000206002002071
:1017000070B506460D46002400BF08E0285D31197B
:10171000064A515C884201D0002070BD641C2846F6
:10172000FEF790FDA042F1D80120F6E7600400200A
:1017300070B504460D46E1B20548FFF790FE00BFC4
:1017400080210348FFF7BFFD0028F9D0204670BD77
:101750000010014070B5002400254FF400711F48AF
:10176000FEF747FD1EA11D48FEF74EFD1D491B4813
:10177000FEF74AFD1948FEF765FD84B200BF224618
:10178000164919A0FFF772FE00BF15A11348FEF716
:101790003BFD1D491148FEF737FD1048FEF752FD8D
:1017A00084B200BF22460D490FA0FFF75FFE00BFC5
:1017B00016490A48FEF728FD0848FEF743FD85B2A2
:1017C00000BF2A46054908A0FFF750FE00BFA5420A
:1017D00001DD002070BD0120FCE70000600000205A
:1017E00024000000380000200D0A677072735F64E7
:1017F0006174615F627566663A3D2573202C206CCA
:10180000656E3D25640000004C000020B5080020F6
:1018100001460248008808700148704730000020E7
:101820006002002010B5FFF757FF4FF47A7204A151
:1018300004A000F00BF808B1012010BD0020FCE767
:101840004F4B00004154453026570D0070B50546FA
:101850000C46164600BF00BFFFF73EFF29460AA010
:10186000FFF7F4F800BF294608A0FFF7FFFD00BF0F
:101870000CB9002070BD642106FB01F0FEF736FFB5
:10188000204600F00DF8F5E7257300000D0A0D0A5B
:10189000B7A2CBCDC3FCC1EE3A2D2D2D3E25730052
:1018A000F8B5054600BF00BF6846FFF7B1FF064622
:1018B00000209DF80010705400BF314618A0FFF7BB
:1018C000D5FD00BF0024002713E0285D30B900BF1C
:1018D00017A0FFF7CBFD00BF0020F8BDE019305C7A
:1018E000295D884202D1601CC4B202E0781CC7B2F4
:1018F0000024E0199DF800108842E6DB285D38B925
:1019000000BF29460DA0FFF7B1FD00BF0020E4E7AE
:1019100000BF294612A0FFF7A9FD00BF0120DCE7A8
:101920000D0AB7B5BBD83A3C2D2D2D0D0A257300F5
:101930000D0AB3C9B9A6A3A1000000000D0AB7B5EE
:10194000BBD8D6B55B25735DD7EEBAF3C6A5C5E4A3
:10195000B3C9B9A62047534D5F5452554500000006
:101960000D0AB7B5BBD8B4EDCEF3A3ACD3A6B7B5CB
:10197000BBD85B25735D000010B5012400BF00BF1C
:101980002CA0FFF773FDFFF7A7FE4FF47A722FA18B
:101990002FA0FFF75BFF08B1012010BD2146641C9A
:1019A000C8B2FFF7C5F92EA0FFF760FDFFF794FE60
:1019B0004FF47A7225A130A0FFF748FF08B101204B
:1019C000EBE72146641CC8B2FFF7B2F900F01CFA3D
:1019D000012813D1FFF780FE2EA0FFF747FD4FF43B
:1019E000FA621AA132A0FFF731FF08B10120D4E753
:1019F0002146641CC8B2FFF79BF904E02146641C31
:101A0000C8B2FFF795F921462CA0FFF72FFDFFF78D
:101A100063FE4FF47A720DA136A0FFF717FF08B1ED
:101A20000120BAE72146641CC8B2FFF781F9002003
:101A3000B3E700000D0A203E3E3120D6BB4750528E
:101A400053B9A4D7F7C0E0D0CD0000004F4B000041
:101A500041542B4347434C4153533D2242220D00F6
:101A60000D0A203E3E3220B6A8D2E5504450D2C6E0
:101A7000B6AFB3A1BEB0000041542B434744434F1F
:101A80004E543D312C224950222C22434D4E455478
:101A9000220D00000D0A203E3E3320BCA4BBEE47C1
:101AA000505253B9A6C4DC20BBF1C8A14950000074
:101AB00041542B43474154543D310D000D0A203E03
:101AC0003E256420C9E8D6C3C4A3BFE9C1ACBDD3D9
:101AD000B7BDCABDCEAA47505253C1ACBDD32CBD71
:101AE000D3C8EBB5E3CEAAA1B0434D4E4554A1B146
:101AF0000000000041542B434950435347503D31AF
:101B00002C22434D4E4554220D00000010B500BF5D
:101B100000BFFFF7E1FDC82204A107A0FFF796FE72
:101B200008B1012010BD0020FCE70000434C4F53DA
:101B300045204F4B0000000041542B434950434C7B
:101B40004F53453D310D000038B504461A20009032
:101B50000025FFF7C1FD4FF4FA721AA11AA0FFF792
:101B600075FE002824D121461AA0FEF76FFF00BFA2
:101B7000214619A0FFF77AFC00BFFFF7ADFD6422F4
:101B800000216846FFF762FE19A0FFF76FFC09E02D
:101B9000681CC0B20546C82800DD0AE042F2107099
:101BA000FEF7A4FD18A0FFF77BFE0028F0D138BD9A
:101BB00000BF1B200090002211466846FFF746FE3A
:101BC0000120F4E73E00000041542B4349505345A7
:101BD0004E440D00257300000D0AB7A2CBCDD7D619
:101BE000B7FBB4AE3A3DA1B02573A1B1000000002F
:101BF0000D0A203E3E20BCECB2E2CAC7B7F1B7A244
:101C0000CBCDCDEAB3C9000053454E44204F4B0025
:101C100038B504461A2000900025FFF75DFDC82264
:101C200019A11AA0FFF712FE002823D121461AA0FD
:101C3000FEF70CFF00BF214618A0FFF717FC00BFFE
:101C4000FFF74AFD642200216846FFF7FFFD19A057
:101C5000FFF70CFC08E0681CC0B20546142800DD44
:101C600009E01A48FEF742FD19A0FFF719FE002807
:101C7000F1D138BD00BF1B200090002211466846FC
:101C8000FFF7E4FD0120F4E73E00000041542B4340
:101C9000495053454E440D00257300000D0AB7A26C
:101CA000CBCDD7D6B7FBB4AE3A3DA1B02573A1B129
:101CB000000000000D0A203E3E20BCECB2E2CAC784
:101CC000B7F1B7A2CBCDCDEAB3C90000A086010021
:101CD00053454E44204F4B0010B5002400BF00BFB9
:101CE000FFF7FAFC002211460CA0FFF7AFFD44F607
:101CF0002060FEF7FBFC09E0601CC0B204463228FD
:101D000001DD012010BD0848FEF7F0FC07A0FFF739
:101D1000C7FD0028F0D100BFF4E7000041542B4379
:101D20004950534855540D00A0860100534855545E
:101D3000204F4B00F0B599B004460D4616460027DB
:101D4000224618A16846FFF7A1FB4FF47A721BA147
:101D50006846FFF77BFD10B1012019B0F0BDFFF719
:101D6000BBFC33462A4616A16846FFF78FFB4FF4AB
:101D70007A7200216846FFF769FD19A0FFF776FB2C
:101D800009E0781CC0B207460A2801DD0120E4E71B
:101D90001948FEF7ABFC19A0FFF782FD0028F0D12F
:101DA00000BFDAE741542B434C504F52543D22546C
:101DB0004350222C222573220D0000004F4B0000BF
:101DC00041542B43495053544152543D22544350A3
:101DD000222C222573222C222573220D00000000C4
:101DE0000D0A203E3E20BCECB2E2CAC7B7F1BDA846
:101DF000C1A2C1ACBDD30000400D0300434F4E4E05
:101E0000454354204F4B000038B5FFF765FCC8220E
:101E100009A10AA0FFF71AFD08B1012038BD6846E4
:101E2000FFF7F6FC044608A12046FEF7F9F908B1D1
:101E30000020F3E70120F1E74F4B000041542B4312
:101E4000474154543F0D00002B43474154543A201E
:101E50003100000038B500BF00BFFFF73DFC4FF474
:101E60007A7210A110A0FFF7F1FC08B1012038BD73
:101E70006846FFF7CDFC04469DF8000008B9012034
:101E8000F5E70CA12046FEF7CBF908B10020EEE7FC
:101E90000CA12046FEF7C4F908B10020E7E70120B5
:101EA000E5E700004F4B000041542B43474D4D0DDB
:101EB0000000000053494D434F4D5F47534D3930AB
:101EC0003041000053494D434F4D5F53494D383029
:101ED0003000000010B5FFF7FFFB4FF4FA6204A1D9
:101EE00004A0FFF7B3FC08B1012010BD0020FCE7FF
:101EF0004F4B000041542B4353510D00F0B50346A6
:101F00000D461646002729460A2E03D000200870E9
:101F10002846F0BD33B9302001F8010B00200870CD
:101F20002846F6E7002B03DA2D2001F8010B5B426F
:101F300042F210720DE093FBF2F404B937B104F1F0
:101F4000300001F8010B04FB123301270A2092FB39
:101F5000F0F2002AEFDC002008702846D9E70000E4
:101F600000250024FEF728FF4FF40060DB4948837A
:101F700040004883FEF766FBFFF704F9FEF72DFCEF
:101F8000FEF710FDD648FEF7B1FB4FF40060D349D1
:101F900008834000088300BFD2A0FFF767FA00BFA4
:101FA00000BFD0A0FFF762FA00BF00BFCDA0FFF7CF
:101FB0005DFA00BF00BFCBA0FFF758FA00BF00BF1B
:101FC000C948FFF753FA00BF00BFC8A1C848FFF7D0
:101FD0004DFA00BF00BFC448FFF748FA00BF00BF7A
:101FE0002146621CD4B2C3A0FFF740FA00BF0DE047
:101FF00000BF2146621CD4B2C8A0FFF737FA00BF69
:102000002046FEF7B7FED348FEF770FBFFF70AFC49
:102010000028EDD12046FEF769FECE48FEF766FBAC
:1020200000BF2146621CD4B2CBA0FFF71FFA00BF4D
:102030000DE000BF2146621CD4B2CEA0FFF716FA15
:1020400000BF2046FEF796FEC248FEF74FFBFFF7A3
:1020500041FF0028EDD12046FEF748FE00BF214693
:10206000621CD4B2CBA0FFF701FA00BF0AE000BFA8
:102070002146621CD4B2CDA0FFF7F8F900BF20467C
:10208000FEF778FEFEF762FD0028F0D12046FEF74D
:102090002DFE00BF2146621CD4B2CBA0FFF7E6F9AB
:1020A00000BF0CE000BFD1A0FFF7E0F900BF00BF08
:1020B000D5A0FFF7DBF900BF2046FEF75BFEFFF778
:1020C000C9FE0028EED12046FEF710FE00BF2146D3
:1020D000621CD4B2D9A0FFF7C9F900BF0FE0681C99
:1020E000C0B20546142807DD00BFDCA0FFF7BEF92B
:1020F00000BF2046FEF73EFE7948FEF7F7FAFEF7EE
:102100008FFD0028EBD12046FEF7F0FD7448FEF766
:10211000EDFA00BF2146621CD4B2DCA0FFF7A6F99D
:1021200000BFFFF7F3FC2046FEF7E0FD6C48FEF72A
:10213000DDFA00BF2146621CD4B2DBA0FFF796F99E
:1021400000BFFFF7C9FD2046FEF7D0FD00BF2146C6
:10215000621CD4B2DBA0FFF789F900BF09E000BF21
:10216000DEA0FFF783F900BF2046FEF703FE00BFA5
:10217000FEE7FFF701FC0028F1D12046FEF7B6FD8F
:1021800000BF2146621CD4B258A2E1A0FFF76EF94D
:1021900000BFE9A2EAA1EFA0FFF7CCFD00282DD0F7
:1021A0002046FEF7E7FD4FF480504C49488300BFBE
:1021B0004EA1EAA0FFF75AF900BF4948FEF796FA88
:1021C00000BFF4A0FFF752F900BF4548FEF78EFAB2
:1021D000FFF79CFC00BFF3A0FFF748F900BF4048A1
:1021E000FEF784FAFFF778FD00BFF2A0FFF73EF993
:1021F00000BFF948FEF77AFAFEF79AFF2046FEF78D
:1022000075FD00BF2146621CD4B2F4A0FFF72EF981
:1022100000BFFB480068FFF797FC00281DD000BFF7
:10222000F8A0FFF723F900BF2D48FEF75FFA00BFC3
:10223000D8A0FFF71BF900BF2948FEF757FAFFF7B0
:1022400065FC00BFD7A0FFF711F900BF2448FEF7D7
:102250004DFAFFF741FD00BFFEE72046FEF746FDC1
:1022600000BF2146621CD4B2F6A0FFF7FFF800BF02
:10227000FC480068FFF768FC00281DD000BFFAA0EA
:10228000FFF7F4F800BF1648FEF730FA00BFC1A010
:10229000FFF7ECF800BF1248FEF728FAFFF736FC0C
:1022A00000BFC0A0FFF7E2F800BF0D48FEF71EFA1E
:1022B000FFF712FD00BFFEE72046FEF717FD00BF47
:1022C0002146621CD4B2F8A0FFF7D0F800BF00BFCF
:1022D0002146FCA0FFF7CAF800BF01E2000002405F
:1022E000A08601000D0A0000BC29000854435000DC
:1022F000282A00080D0A3E256420D5FDD4DAB5C889
:10230000B4FD47534DC4A3BFE920D6D8C6F4C9E8ED
:10231000B1B820A1A3A1A3A1A30D0A000D0A3E25D7
:102320006420D6D8C6F4C9E8B1B8CAA7B0DC20A3E7
:10233000ACD5FDD4DAB5C8B4FD47534DC4A3BFE94D
:1023400020D6D8C6F4C9E8B1B8A1A3A1A3A1A30D12
:102350000A000000400D03000D0A3E256420B2E98A
:10236000D1AFD0C5BAC5C7BFB6C8A1A3A1A3A1A309
:10237000000000000D0A3E256420B2E9D1AFD0C5AF
:10238000BAC5C7BFB6C8CAA7B0DC20A1A3A1A3A184
:10239000A30D0A000D0A3E256420BBF1C8A1C9E8BF
:1023A000B1B8494D4549BAC5200D0A000D0A3E2570
:1023B0006420BBF1C8A1C9E8B1B8494D4549BAC5C7
:1023C000CAA7B0DCA3A100000D0A3E256420D5FDFC
:1023D000D4DAB5C8B4FD47534DC4A3BFE9B3F5CAB9
:1023E000BCBBAFA1A3A1A3A1A30D0A000D0A0D0AB6
:1023F000C4A3BFE9CFECD3A6B2E2CAD4B2BBD5FD29
:10240000B3A3A3A1210000000D0A0D0AC8F4C4A3C0
:10241000BFE9CFE0D3A6D2BBD6B1B2BBD5FDB3A343
:10242000A3ACC7EBBCECB2E9C4A3BFE9C1ACBDD35C
:10243000CFDFBACDB5E7D4B4000000000D0A3E25C9
:102440006420D5FDD4DABCECB2E2B5E7BBB0BFA8DE
:10245000A1A3A1A3A1A30D0A000000000D0A0D0A6B
:10246000BCECB2E2B2BBB5BDB5E7BBB0BFA8A3AC94
:10247000C7EBB6CFB5E7BAF3D6D8D0C2B2E5C8EB52
:10248000B5E7BBB0BFA80D0A000000000D0A3E254D
:102490006420C8B7C8CFB9D8B1D5D6AEC7B0B5C417
:1024A000C1ACBDD3210000000D0A3E256420C8B791
:1024B000C8CFB9D8B1D5D6AEC7B0B5C4B3A1BEB038
:1024C000210000000D0A3E256420D6D8D0C2B3F505
:1024D000CABCBBAF47505253210000000D0A0D0A81
:1024E000B3F5CABCBBAF47505253CAA7B0DCA3ACCC
:1024F000C7EBD6D8D0C2B8F8C4A3BFE9C9CFB5E7F7
:10250000B2A2B8B4CEBBBFAAB7A2B0E5000000002B
:102510000D0A3E256420B3A2CAD4BDA8C1A225736A
:10252000C1B4BDD3A3ACC7EBC4CDD0C4B5C8B4FD52
:10253000A1A3A1A3A1A300003430363538000000C8
:10254000323864373765313737332E7A6963702E06
:102550007669700032303030000000000D0A0D0A3C
:10256000202573C1B4BDD3CAA7B0DCA3ACC7EBBCF4
:10257000ECB2E2D5FDC8B7C9E8D6C3B8F7B8F6C41F
:10258000A3BFE920585858585858585858585858C0
:10259000585858000D0A0D0A204950C1B4BDD3B691
:1025A000CFBFAA000D0A0D0A20B9D8B1D5B3A1BE7C
:1025B000B00000000D0A0D0A202A2A2A2A2A2A2AF7
:1025C0002A3573BAF3D7D4B6AFD6D8C6F42A2A2A96
:1025D0002A2A2A2A2A2A2A0020A107000D0A3E2593
:1025E0006420C1ACBDD3B3C9B9A6A3ACB3A2CAD44D
:1025F000B7A2CBCDCAFDBEDDA1A3A1A3A1A30000BC
:10260000240000200D0A0D0A20544350B7A2CBCD60
:10261000CAFDBEDDCAA7B0DCA3ACC7EBBCECB2E21E
:10262000D5FDC8B7C9E8D6C3B8F7B8F6C4A3BFE9A3
:102630002058585858585858585858585858585852
:10264000000000000D0A3E256420B3A2CAD4B7A240
:10265000CBCDB5DAB6FECCF5CAFDBEDDA1A3A1A3F4
:10266000A1A30000280000200D0A0D0A3E5443508B
:10267000B7A2CBCDCAFDBEDDCAA7B0DCA3ACC7EB09
:10268000BCECB2E2D5FDC8B7C9E8D6C3B8F7B8F616
:10269000C4A3BFE920585858585858585858585843
:1026A00058585858000000000D0A3E256420B7A273
:1026B000CBCDB5DAB6FECCF5CAFDBEDDB3C9B9A641
:1026C000000000000D0A3E256420BFAACABCB7A2C4
:1026D000CBCDB5DAC8FDCCF5CAFDBEDD00000000EB
:1026E0002248FEF703F83FE002E02148FDF7FEFF35
:1026F000FFF730F80128F8D01E48FFF789FA0028C4
:1027000029D000BFAFF2A000FEF7B0FE00BF18480E
:10271000FDF7ECFF00BFAFF28410FEF7A7FE00BF8D
:102720001348FDF7E3FFFFF7F1F900BFAFF28C109C
:10273000FEF79CFE00BF0E48FDF7D8FFFFF7CCFA6E
:1027400000BFAFF29010FEF791FE00BF0A48FDF700
:10275000CDFFFEF7EDFC0948406980F400600749B1
:1027600048610348FDF7C2FFBEE70000400D0300CB
:10277000A08601006000002020A1070000000240A8
:102780002DE9F04106460F460024B81B85B259A139
:102790003046FEF7B5FF80B1522D0DDCFDF792FDFE
:1027A00000BF06E030195549085C55490855601CC2
:1027B00084B2AC42F6DD00BF99E052A13046FEF78C
:1027C0009FFF80B14B2DF7DCFDF798FD002406E05C
:1027D00030194A49085C4D490855601C84B2AC4226
:1027E000F6DD00BF83E04AA13046FEF789FF80B1E5
:1027F000DC2D7CDCFDF7BAFD002406E030193F49F2
:10280000085C45490855601C84B2AC42F6DD00BF47
:102810006DE042A13046FEF773FF80B1DC2D66DC2F
:10282000FDF742FD002406E030193449085C3D49BB
:102830000855601C84B2AC42F6DD00BF57E03AA1F7
:102840003046FEF75DFF80B1502D50DCFDF764FD92
:10285000002406E030192949085C35490855601CF8
:1028600084B2AC42F6DD00BF41E032A13046FEF753
:1028700047FF80B12C2D3ADCFDF75CFD002406E01B
:1028800030191E49085C2D490855601C84B2AC42C1
:10289000F6DD00BF2BE02AA13046FEF731FF80B104
:1028A000D22D24DCFDF71CFD002406E0301913496D
:1028B000085C25490855601C84B2AC42F6DD00BFB7
:1028C00015E022A13046FEF71BFF80B1D22D0EDCB1
:1028D000FDF73EFD002406E030190849085C1D495B
:1028E0000855601C84B2AC42F6DD00BF00BFBDE8F5
:1028F000F081000024474E4747410000600400205B
:102900006006002024474E4753410000B2060020D5
:102910002447504753560000FD06002024424447F8
:1029200053560000D907002024474E524D43000063
:10293000B508002024474E565447000005090020E2
:1029400024474E474C4C00003109002024474E5A82
:1029500044410000030A00202DE9F0410024002535
:102960000026002700BF00BF00BF1EE01248005D28
:10297000242801D1012725460F48005D0D2812D1DA
:10298000601C80B204460C49085C0A280BD126461C
:10299000701B0A2807DD37B100BF00BF314628464B
:1029A000FFF7EEFE0027601C84B2B4F5007FDDDB8C
:1029B00000BF00BFBDE8F081600400200D0A0D0AD1
:1029C0002A2A2A2A2A2A2A2A2A2A2A2A2A2A2A2A67
:1029D0002A2A2A2A2A2A2A2A2A2A2A2A2A2A2A2A57
:1029E0002A2A2A2A2A2A2A2A2A2A2A2A2A2A2A2A47
:1029F0002A2A2A2A2A2A2A2A2A2A2A2A2A2A2A2A37
:102A00002A2A2A2A2A2A2A2A2A2A2A2A2A2A2A2A26
:102A10002A2A2A2A2A2A2A2A2A2A2A2A2A2A2A2A16
:102A20002A2A2A2A0D0A00000D0A0D0A2A2A2A2A11
:102A30002A2A2A2A2A2A2A2A2A2A2A2A2A2A2A2AF6
:102A40002A2A2A47534DC4A3BFE92573CAD5B7A282
:102A5000CABEC0FDB3CCD0F22A2A2A2A2A2A2A2AA0
:102A60002A2A2A2A2A2A2A2A2A2A2A2A2A2A2A2AC6
:102A70002A2A2A2A2A2A2A2A2A2A2A2A2A2A2A2AB6
:102A80002A2A2A2A2A2A2A2A2A2A2A2A2A2A2A0DC3
:102A90000A0000000D0A20312E2053494D383030F5
:102AA000412047534DC4A3BFE9475053CAFDBEDD83
:102AB000C9CFB4ABB9A6C4DCB2E2CAD42D2D000094
:102AC0000D0A20322E2053494D38303041204753D3
:102AD0004DC4A3BFE9475053CAFDBEDDC9CFB4AB57
:102AE000B9A6C4DCB2E2CAD42D2D00000C2B00081C
:102AF0000000002038000000B4140008442B000837
:102B000038000020A00E0000C41400080095BA0A86
:102B1000000000000000000001020304060708098D
:102B20000000000001020304010203040607080973
:102B3000942A0008C02A00080000000000000000DD
:042B40000000000091
:04000005080001AD41
:00000001FF
