:020000040800F2
:10000000B80C0020C1010008410B0008110B0008CA
:100010003D0B0008690200089B1100080000000069
:10002000000000000000000000000000410D00087A
:100030000506000800000000F50B0008B10E0008DE
:10004000DB010008DB010008DB010008DB01000820
:10005000DB010008DB010008DB010008DB01000810
:10006000DB010008DB010008DB010008DB01000800
:10007000DB010008DB010008DB010008DB010008F0
:100080004D030008DB010008DB010008DB0100086C
:10009000DB010008DB010008DB010008DB010008D0
:1000A000DB010008DB010008DB010008DB010008C0
:1000B000DB010008DB010008DB010008DB010008B0
:1000C000DB010008DB010008DB010008DB010008A0
:1000D000DB010008A10F0008DB010008DB010008BC
:1000E000DB010008DB010008DB010008DB01000880
:1000F000DB010008DB010008DB010008DB01000870
:10010000DB010008DB010008DB010008DB0100085F
:10011000DB010008DB010008DB010008DB0100084F
:10012000DB010008DB010008DB010008DB0100083F
:10013000DB010008DB010008DB010008DB0100082F
:10014000DB010008DB010008DB010008DB0100081F
:10015000DB010008DB010008DB010008C90F000813
:10016000DB010008DB010008DB010008DB010008FF
:10017000DB010008DB010008DB010008DB010008EF
:10018000DB010008DB010008DB010008DB010008DF
:10019000DB010008DB010008DB010008DB010008CF
:1001A000DB010008DB010008DB010008DFF80CD0F0
:1001B00000F048F800480047251B0008B80C002054
:1001C0000648804706480047FEE7FEE7FEE7FEE7F1
:1001D000FEE7FEE7FEE7FEE7FEE7FEE7210F000889
:1001E000AD01000830B505462A460B4612F8010B52
:1001F00013F8014B08B1A042F8D01CB1002802D07E
:100200006D1CF1E7284630BD421C10F8011B002987
:10021000FBD1801A704730B50B46014600202022E2
:10022000012409E021FA02F59D4205D303FA02F503
:10023000491B04FA02F52844151EA2F10102F1DC63
:1002400030BD0000064C074D06E0E06840F00103B9
:1002500094E8070098471034AC42F6D3FFF7AAFFA2
:10026000342500085425000800BFFEE7DD2005E026
:100270000022411E89B20846024B5A540028F7D189
:1002800070470000B5050020532005E00022411E04
:1002900089B20846024B5A540028F7D17047000033
:1002A0003C040020D32005E00022411E89B208460C
:1002B000024B5A540028F7D1704700000D07002068
:1002C0004C2005E00022411E89B20846024B5A54D8
:1002D0000028F7D1704700008E040020512005E06F
:1002E0000022411E89B20846024B5A540028F7D119
:1002F00070470000910600202D2005E00022411EDD
:1003000089B20846024B5A540028F7D170470000C2
:10031000E1060020D32005E00022411E89B20846F4
:10032000024B5A540028F7D170470000DF07002025
:10033000DD2005E00022411E89B20846024B5A54D6
:100340000028F7D170470000D904002010B500F054
:1003500095FA10BD0246094B9A4201D2084801E0C5
:100360000648103801F000531BB1064B0B40C36028
:1003700002E0044B0B4083607047000010640240B1
:10038000006002407D0F7D0F21B1026842F0010242
:10039000026003E0026822F0010202607047000080
:1003A000016821F00101016000210160416081606C
:1003B000C1600161212141614A49884204D13D2146
:1003C000484A103A91608CE046491831884205D17C
:1003D0004FF47461434A103A916082E041493031F0
:1003E000884205D14FF474113E4A103A916078E08A
:1003F0003C494831884205D14FF07461394A103A7E
:1004000091606EE037496031884204D13649354AFF
:10041000103AD16065E033497831884204D13349DC
:10042000304A103AD1605CE02E499031884204D1C4
:100430002F492C4A103AD16053E02A49A83188420A
:1004400005D14FF03D51274A103AD16049E0294982
:10045000884204D13D21274A083A116041E02549EC
:100460001831884205D14FF47461224A083A11606C
:1004700037E020493031884205D14FF474111D4ACC
:10048000083A11602DE01B494831884205D14FF0F0
:100490007461184A083A116023E0164960318842B5
:1004A00004D11149134A121F11601AE01149783121
:1004B000884204D10D490F4A121F116011E00D4905
:1004C0009031884204D10A490A4A121F116008E09B
:1004D0000849A831884204D14FF03D51054A121F06
:1004E00011607047106002403D000020400F002066
:1004F00000003D2010640240014600200A6802F01E
:1005000001020AB1012000E00020704770B50246E8
:10051000002000240025124EB24201D2114B01E00E
:100520000F4B103B104E0E4036B11E2606EAD1246A
:10053000166806EA040502E0566906F0800501F037
:1005400000560EB15C6800E01C68084E344004EAB6
:10055000010616B10DB1012000E0002070BD0000C1
:1005600010640240006002403C0F3C0F7D0F7D0F85
:1005700010B501F080034BB122B1436943F0800311
:10058000436103E0436923F08003436180290BD07A
:100590002AB1036801F01E042343036004E00368EA
:1005A00001F01E04A343036010BD000010B500223B
:1005B0000268134B1A40CC680B6823434C692343F1
:1005C0008C692343CC6923430C6A23434C6A23433D
:1005D0008C6A23434C6B23438C6B23431A43026086
:1005E000426922F00702D1E90B3423431A434261E6
:1005F0000B6943604B6883608B68C36010BD00006B
:100600003F801CF07047000000B587B0012108460C
:1006100000F0F2FA0121102000F00EFB00208DF80E
:100620001A0001208DF81B0002208DF819008DF8AA
:1006300018000002059005A91B4800F045F80220AB
:100640008DF818004002059005A9174800F03CF805
:1006500007220A21144800F07FF8072209211248D6
:1006600000F07AF84FF4E13001900020ADF8080076
:10067000ADF80A00ADF80C00ADF810000C20ADF894
:100680000E0001A9094800F015FD00F05AFA0122F8
:1006900040F22551054800F0E7FC0121034800F035
:1006A00097FC07B000BD00000000024000100140B0
:1006B00001B504490098086000BF0248006800289E
:1006C000FBD108BD30000020F0B50A460021002310
:1006D000002400BF3DE0012505FA01F3156805EA95
:1006E00003049C4234D105684F000326BE40B54345
:1006F000056015794E00B5400668354305601579EB
:10070000012D02D01579022D16D185684F000326E0
:10071000BE40B543856055794E00B5408668354387
:100720008560456801268E40B543456045689679E9
:100730008E40B6B235434560C5684F000326BE40C3
:10074000B543C560D5794E00B540C6683543C56030
:10075000491C1029BFD3F0BDF0B5002300244D077C
:10076000ED0E02FA05F3CE1000F1200555F82650E3
:100770004E07F70E0F26BE40B543CF1000F12006FE
:1007800046F82750CE1000F1200555F8265045EACE
:100790000304CE1000F1200545F82640F0BD10B549
:1007A00000F086F800F002F810BD000000B58FB030
:1007B0000121480500F020FA2248FFF7F1FD00BFB3
:1007C0002048FFF799FE0028FAD14FF00060009012
:1007D0001D4801901D480290002003904FF40070C6
:1007E0000490002005904FF4806006900020079050
:1007F00008904FF48070099000020A9000200B903E
:1008000003200C9000200D900E9069460D48FFF7D4
:10081000CDFE00F01DF8012210210A48FFF7A8FEC6
:1008200001210848FFF7B0FD00BF0648FFF764FE4E
:100830000128FAD1012240210348001F00F0D4FB17
:100840000FB000BD88600240044400403C0200201C
:1008500008B54FF4C06000F0C3F910208DF8000017
:1008600001208DF8010000208DF8020001208DF894
:100870000300684600F078F908BD000010B509498A
:100880000948FFF743FE60B1012008490870054997
:100890000548FFF75FFD00BF00BF00BF00BF01F0CC
:1008A0009FFD10BD008800208860024036000020B7
:1008B00000B587B00121084600F09EF901214804E7
:1008C00000F0AAF9072203211B48FFF745FF072282
:1008D00002211948FFF740FF00208DF81A0001207F
:1008E0008DF81B0002208DF818008DF819000420E7
:1008F000059005A91048FFF7E7FE0820059005A917
:100900000D48FFF7E1FE4FF4164001900020ADF8CE
:100910000800ADF80A00ADF80C00ADF810000C208E
:10092000ADF80E0001A9054800F0C4FB0121034801
:1009300000F04EFB07B000BD000002400044004044
:1009400008B54FF4E06000F04BF947208DF8000047
:1009500001208DF801008DF802008DF80300684633
:1009600000F002F908BD000000B587B001210420A5
:1009700000F042F90121202000F05EF90822072151
:100980002148FFF7E9FE082206211F48FFF7E4FE91
:1009900000208DF81A0001208DF81B0002208DF830
:1009A00018004020059002208DF8190005A916486E
:1009B000FFF78AFE8020059002208DF8180005A917
:1009C0001148FFF781FE4FF4E13001900020ADF8AF
:1009D0000800ADF80A00ADF80C00ADF810000C20CE
:1009E000ADF80E0001A9094800F064FBFFF7A8FF6D
:1009F000012240F22551054800F036FB0121034851
:100A000000F0E6FA07B000BD000802400014014003
:100A10000FB430B585B009A800906FE00898007851
:100A20005C281CD10898401C089000786E2809D0DA
:100A300072280FD10D21354800F0ABFB0898401CFF
:100A400008900BE00A21314800F0A3FB0898401CF5
:100A5000089003E00898401C089000BF47E0089801
:100A6000007825283CD10898401C0890007864281C
:100A700018D0732833D1009810C800900BE021786B
:100A8000224800F086FB00BF8021204800F0B5FA24
:100A90000028F9D0641C20780028F0D10898401C68
:100AA00008901CE0009820C800900A2201A928465E
:100AB00001F006F801AC0BE02178144800F069FB66
:100AC00000BF8021114800F098FA0028F9D0641C7A
:100AD00020780028F0D10898401C089000BF06E05C
:100AE000089810F8011B0890084800F052FB00BF5E
:100AF0008021064800F081FA0028F9D00898007893
:100B000000288BD105B030BC5DF814FB0014014007
:100B100000BFFEE710B500BF00BF00F077FC4FF448
:100B20007A7202A102A000F0CFFC10BD4F4B000072
:100B300041542B434E554D0D0000000000BFFEE711
:100B4000704708B54FF4A06000F04AF825208DF8F2
:100B5000000001208DF801008DF802008DF80300DF
:100B6000684600F001F808BD70B5002100230F228F
:100B7000C4781CB3174C246804F4E064C4F5E06442
:100B8000C4F30721C1F10404E3B20A4144789C4054
:100B9000E1B28478144021430C07210E0E4C0578F5
:100BA0006155047804F01F050124AC4005786D11EF
:100BB000AD0005F1E025C5F8004109E0047804F036
:100BC0001F050124AC40054D0678761145F82640F6
:100BD00070BD00000CED00E000E400E080E100E00A
:100BE00002490143024A1160704700000000FA0503
:100BF0000CED00E07047000029B1064A126802437C
:100C0000044B1A6004E0034A12688243014B1A60E5
:100C1000704700003038024029B1064A126802438A
:100C2000044B1A6004E0034A12688243014B1A60C5
:100C3000704700004038024029B1064A126802435A
:100C4000044B1A6004E0034A12688243014B1A60A5
:100C50007047000044380240F0B500210022002413
:100C6000022500260223324F3F6807F00C0121B114
:100C7000042905D0082937D105E02E4F076036E05A
:100C80002D4F076033E02A4F3F1F3F68C7F3805660
:100C9000274F3F1F3F6807F03F036EB1264FB7FB5A
:100CA000F3F7DFF88CC0ACF1040CDCF800C0CCF337
:100CB000881C07FB0CF40CE01E4FB7FBF3F7DFF8C2
:100CC00070C0ACF1040CDCF800C0CCF3881C07FB4E
:100CD0000CF4174F3F1F3F68C7F301477F1C7D008F
:100CE000B4FBF5F7076002E0124F076000BF00BFDA
:100CF0000F4F3F6807F0F0010909104F7A5C076851
:100D0000D74047600A4F3F6807F4E051890A0B4F0C
:100D10007A5C4768D7408760054F3F6807F46041B9
:100D2000490B064F7A5C4768D740C760F0BD0000AA
:100D3000083802400024F40040787D0114000020AF
:100D4000704700000CB500200190009041480068F9
:100D500040F480303F49086000BF3E48006800F41E
:100D6000003000900198401C0190009818B901983B
:100D7000B0F5A04FF1D13748006800F4003010B151
:100D80000120009001E0002000900098012860D12F
:100D900030484030006840F080502E4940310860B3
:100DA0002D48006840F440402B490860294808302D
:100DB00000682849083108600846006840F400408F
:100DC00008600846006840F4A05008602348091FE6
:100DD0000860081F006840F08070091F086000BFAD
:100DE0001C48006800F000700028F9D01A4800681C
:100DF00040F480301849086000BF1748406800F48C
:100E000080300028F9D01448006840F400301249BE
:100E1000086000BF1048406800F400300028F9D096
:100E200040F205700E4908600A480830006820F05A
:100E300003000849083108600846006840F00200D5
:100E4000086000BF03480830006800F00C00082864
:100E5000F8D10CBD0038024000700040195A40071C
:100E6000003C0240012080F3138800BF00BF00BF98
:100E700000BF00BF00BFBFF34F8F00BF00BF00BF68
:100E80000948006800F4E06008490843001D06496D
:100E9000086000BF00BF00BFBFF34F8F00BF00BF9F
:100EA00000BF00E000BFFDE70CED00E00000FA0528
:100EB00010B500F069F810BD30B515480068154A46
:100EC000B0FBF2F1481EB0F1807F01D301201BE09E
:100ED000481E4FF0E022506150170F22002807DA19
:100EE00013071D0E0C4B00F00F04241F1D5503E0CB
:100EF00013071C0E094B1C5400BF00204FF0E022CA
:100F0000906107201061002008B100BFFEE730BDEE
:100F100000000020A086010018ED00E000E400E0E1
:100F200010B51548006840F4700013490860134874
:100F3000006840F001001149086000200F490831A5
:100F400008600E4800680E4908400C4908600D48CA
:100F5000091D0860081F006820F48020091F086030
:100F6000002006490C310860FFF7ECFE4FF00060EE
:100F700001498039086010BD88ED00E0003802406A
:100F8000FFFFF6FE103000240448006820B103483B
:100F90000068401E014908607047000030000020D2
:100FA00010B540F22551064800F034F838B1044835
:100FB00000F0EAF8C4B2214602A000F0F1F810BD3A
:100FC000001001402563000010B500F0FFF910BDCE
:100FD00021B1828942F40052828104E082894DF677
:100FE000FF731A40828170471AB1838A0B43838250
:100FF00002E0838A8B438382704702460020B1F56A
:10100000007F00D100BF13880B400BB1012000E02E
:101010000020704770B50246002400230025002000
:1010200040F66A16B14200D100BFC1F3421501F08B
:101030001F03012606FA03F3012D02D196893340DE
:1010400006E0022D02D1168A334001E0968A334031
:101050000C12012606FA04F41688344013B10CB1C0
:10106000012000E0002070BDF0B5034600240026FA
:101070000025002040F66A17B94200D100BF18468B
:10108000C1F3421401F01F06012707FA06F5012CEF
:1010900001D10C3004E0022C01D1103000E01430FA
:1010A0001AB107682F43076002E00768AF43076083
:1010B000F0BD00002DE9FF4705460E460024A1467D
:1010C00000BFA046B08900B100BF2C8A24F4405470
:1010D000F08804432C82AC8941F20C608443B088D0
:1010E00031890843718908430443AC81AC8A24F4F4
:1010F0004074B0890443AC826846FFF7ADFD2048D8
:10110000854202D01F48854202D1DDF80C9001E0F3
:10111000DDF80890A88900F4004040B109EBC9004F
:1011200000EB091031684900B0FBF1F707E009EB6B
:10113000C90000EB091031688900B0FBF1F76420A9
:10114000B7FBF0F004012009642101FB1078A889A5
:1011500000F4004040B1322000EBC800B0FBF1F0D9
:1011600000F00700044308E0322000EB081064217F
:10117000B0FBF1F000F00F0004432C81BDE8FF87C5
:10118000001001400014014001468888C0F30800A7
:101190007047C1F308028280704700BFFEE700007D
:1011A0000FB4054B10B503A9044A029800F02CF8BF
:1011B00010BC5DF814FB0000651400083800002026
:1011C0000FB4084B10B504A902AA039800F01CF84C
:1011D000044602A9002000F0F3F8204610BC5DF898
:1011E00014FB0000C113000802E008C8121F08C168
:1011F000002AFAD170477047002001E001C1121F98
:10120000002AFBD1704700002DE9FF4F8BB09A46B2
:101210000F460546002606E025280BD052460D99BC
:1012200090476D1C761C28780028F5D10FB0304609
:10123000BDE8F08F0024A0460122604900E004438D
:1012400015F8013F203B02FA03F00842F7D1287855
:101250002E2817D115F8010F44F004042A280ED0C7
:101260006FF02F022878A0F1300109290AD808EB85
:10127000880102EB410100EB01086D1CF2E757F811
:10128000048B6D1C287869283ED006DC0028CDD060
:1012900063280BD0642804D136E0732810D0752859
:1012A0004BD052460D999047761C85E017F8040BF9
:1012B0008DF8000000208DF80100E946012003E0D0
:1012C00057F8049B4FF0FF3061074FF0000401D442
:1012D0000AE0641C44450DDA8442FADB19F8041074
:1012E0000029F6D106E0641C8442FCDB19F80410E6
:1012F0000029F8D1264404E019F8010B52460D9953
:101300009047641EF8D257E001CF4FF00A0B002837
:1013100002DA40422D2102E0210504D52B218DF86F
:101320002410012103E0E10705D02021F7E70DF1AA
:10133000200908910CE00021F9E701CF4FF00A0BDA
:10134000F9E75946FEF767FF01F1300209F8012D70
:101350000028F6D1ADEB090000F1200B600701D4A5
:101360004FF00108D84502DDA8EB0B0000E000209B
:101370008046002406E009A85246005D0D9990477A
:10138000641C761C08988442F5DB04E03020524649
:101390000D999047761CB8F10001A8F10108F5DC21
:1013A00005E019F8010B52460D999047761CBBF1E8
:1013B0000001ABF1010BF4DC6D1C34E709280100DE
:1013C0000A68531C0B6010707047000010B50C4881
:1013D0000088B0F5007F11DA40F225510948FFF787
:1013E0000CFE58B10748FFF7CFFE0749044A1288A0
:1013F000885403480088401C0149088010BD000043
:1014000034000020001401403C00002040F2012084
:101410000021064A118005E00022411E89B20846DB
:10142000034B5A540028F7D17047000034000020C5
:101430003C00002070B506460D46002400BF08E0C1
:10144000285D3119064A515C884201D0002070BDE8
:10145000641C2846FEF7D8FEA042F1D80120F6E72A
:101460003C02002070B504460D46E1B20548FFF786
:1014700090FE00BF80210348FFF7BFFD0028F9D090
:10148000204670BD001001400146024800880870E7
:1014900001487047340000203C00002010B5FFF7E1
:1014A000B5FFFFF761FA4FF47A7204A104A000F0CF
:1014B0000BF808B1012010BD0020FCE74F4B0000E5
:1014C0004154453026570D0070B505460C4616466A
:1014D00000BF00BFFFF79AFF29460AA0FFF798FA5E
:1014E00000BF294608A0FFF75BFE00BF0CB9002033
:1014F00070BD642106FB01F0FFF7DAF8204600F02A
:101500000DF8F5E7257300000D0AB7A2CBCDC3FC9B
:10151000C1EE3A2D2D2D3E2573000000F8B505468D
:1015200000BF00BF6846FFF7AFFF064600209DF8EA
:101530000010705400BF314615A0FFF731FE00BF08
:101540000024002714E0285D38B900BF29461DA0FB
:10155000FFF726FE00BF0020F8BDE019305C295DD2
:10156000884202D1601CC4B202E0781CC7B20024D9
:10157000E0199DF800108842E5DB285D30B900BF16
:1015800018A0FFF70DFE00BF0020E5E70120E3E70C
:101590000D0AB7B5BBD8CAFDBEDD203C2D2D2D0DE3
:1015A0000A2D2D2D2D2D2D2D2D2D2D2D2D2D2D2D8E
:1015B0000D0A25732D2D2D2D2D2D2D2D2D2D2D2D60
:1015C0002D2D2D000D0AB7B5BBD8D6B55B25735DA3
:1015D000C6A5C5E4B3C9B9A6202047534D5F5452F0
:1015E000554500000D0AB7B5BBD8D6B5D7EEBAF34E
:1015F000C6A5C5E4B3C9B9A62047534D5F5452559B
:101600004500000010B500BF00BF1DA0FFF7C8FDDA
:10161000FFF7FCFE4FF47A721FA120A0FFF754FFE2
:1016200008B1012010BD21A0FFF7BAFDFFF7EEFEC3
:101630004FF47A7218A123A0FFF746FF08B10120EA
:10164000F0E7FFF7E3FE26A0FFF7AAFD4FF47A725A
:1016500011A12AA0FFF738FF08B10120E2E72AA074
:10166000FFF79EFDFFF7D2FE4FF47A720AA133A076
:10167000FFF72AFF08B10120D4E70020D2E70000DD
:101680000D0A203E3E3120D6BB47505253B9A4D755
:10169000F7C0E0D0CD0000004F4B000041542B4379
:1016A00047434C4153533D2242220D000D0A203E38
:1016B0003E3220B6A8D2E5504450D2C6B6AFB3A150
:1016C000BEB0000041542B434744434F4E543D317C
:1016D0002C224950222C22434D4E4554220D00000D
:1016E0000D0A203E3E3320BCA4BBEE47505253B9F6
:1016F000A6C4DC20BBF1C8A14950000041542B43D3
:10170000474154543D310D000D0A203E3E3420C95E
:10171000E8D6C3C4A3BFE9C1ACBDD3B7BDCABDCE73
:10172000AA47505253C1ACBDD32CBDD3C8EBB5E3CF
:10173000CEAAA1B0434D4E4554A1B10041542B4314
:101740004950435347503D312C22434D4E4554227E
:101750000D00000010B500BF00BFFFF757FEC82204
:1017600004A105A0FFF7B0FE08B1012010BD0020C4
:10177000FCE700004F4B000041542B434950434CC1
:101780004F53453D310D000038B504461A200090F6
:101790000025FFF73BFE4FF4FA721AA11AA0FFF7DB
:1017A00093FE002824D121461AA0FFF731F900BF8B
:1017B000214619A0FFF7F4FC00BFFFF727FE6422C3
:1017C00000216846FFF780FE19A0FFF7E9FC09E059
:1017D000681CC0B20546C82800DD0AE042F210705D
:1017E000FEF766FF18A0FFF799FE0028F0D138BD7C
:1017F00000BF1B200090002211466846FFF764FEE0
:101800000120F4E73E00000041542B43495053456A
:101810004E440D00257300000D0AB7A2CBCDD7D6DC
:10182000B7FBB4AE3A3DA1B02573A1B100000000F2
:101830000D0A203E3E20BCECB2E2CAC7B7F1B7A207
:10184000CBCDCDEAB3C9000053454E44204F4B00E9
:1018500038B504461A2000900025FFF7D7FD4FF455
:10186000FA721AA11AA0FFF72FFE002824D12146F0
:101870001AA0FFF7CDF800BF214619A0FFF790FC92
:1018800000BFFFF7C3FD642200216846FFF71CFE7E
:1018900019A0FFF785FC09E0681CC0B20546C828FE
:1018A00000DD0AE042F21070FEF702FF18A0FFF719
:1018B00035FE0028F0D138BD00BF1B20009000226B
:1018C00011466846FFF700FE0120F4E73E000000E5
:1018D00041542B43495053454E440D00257300009D
:1018E0000D0AB7A2CBCDD7D6B7FBB4AE3A3DA1B067
:1018F0002573A1B1000000000D0A203E3E20BCEC83
:10190000B2E2CAC7B7F1B7A2CBCDCDEAB3C90000E6
:1019100053454E44204F4B0010B5002400BF00BF7C
:10192000FFF774FD002211460AA0FFF7CDFD09E084
:10193000601CC0B20446322801DD012010BD0848F9
:10194000FEF7B6FE07A0FFF7E9FD0028F0D100BFC3
:10195000F4E7000041542B434950534855540D00BF
:10196000A08601004F4B0000F0B599B004460D462B
:1019700016460027224619A16846FFF721FC4FF4BE
:101980007A721CA16846FFF79FFD10B1012019B0C3
:10199000F0BDFFF73BFD33462A4617A16846FFF727
:1019A0000FFC4FF47A7200216846FFF78DFD1AA0F4
:1019B000FFF7F6FB0AE0781CC0B20746C82801DD35
:1019C0000120E4E742F21070FEF772FE18A0FFF764
:1019D000A5FD0028EFD100BFD9E7000041542B43FB
:1019E0004C504F52543D22544350222C22257322F6
:1019F0000D0000004F4B000041542B4349505354FD
:101A00004152543D22544350222C222573222C2231
:101A10002573220D000000000D0A203E3E20BCEC84
:101A2000B2E2CAC7B7F1BDA8C1A2C1ACBDD3000024
:101A3000434F4E4E454354204F4B000038B500BF36
:101A400000BFFFF7E3FCFEF78FFF4FF47A7210A19F
:101A500010A0FFF739FD08B1012038BD6846FFF737
:101A600013FD04469DF8000008B90120F5E70CA11C
:101A70002046FEF7B7FB08B10020EEE70CA1204698
:101A8000FEF7B0FB08B10020E7E70120E5E7000022
:101A90004F4B000041542B43474D4D0D00000000BB
:101AA00053494D434F4D5F47534D3930304100004E
:101AB00053494D434F4D5F53494D3830300000007E
:101AC000F0B503460D461646002729460A2E03D0D8
:101AD000002008702846F0BD33B9302001F8010B12
:101AE000002008702846F6E7002B03DA2D2001F8C5
:101AF000010B5B4242F210720DE093FBF2F404B969
:101B000037B104F1300001F8010B04FB1233012757
:101B10000A2092FBF0F2002AEFDC00200870284631
:101B2000D9E7000070B500250024FEF76DFDFFF732
:101B3000C3F9FEF734FE00BFAEA0FFF731FB00BFD4
:101B400000BFACA0FFF72CFB00BF00BFA9A0FFF7B0
:101B500027FB00BF00BFA7A0FFF722FB00BF00BF0D
:101B6000A548FFF71DFB00BF00BFA448FFF718FB07
:101B700000BF00BFA048FFF713FB00BF00BF214616
:101B8000621CD4B29EA0FFF70BFB00BF07E000BFB2
:101B90002146621CD4B2A4A0FFF702FB00BFFFF7EE
:101BA0007DFC0028F3D100BF2146621CD4B2ACA05A
:101BB000FFF7F6FA00BF09E000BFB2A0FFF7F0FAA6
:101BC00000BF00BFB6A0FFF7EBFA00BFFFF736FF7C
:101BD0000028F1D100BF2146621CD4B2BDA0FFF79E
:101BE000DFFA00BF0CE0681CC0B20546142804DD13
:101BF00000BFC0A0FFF7D4FA00BFCA48FEF758FDE7
:101C0000FEF788FF0028EED1C648FEF751FD00BF61
:101C10002146621CD4B2C4A0FFF7C2FA00BFFFF78E
:101C200099FDC048FEF744FD00BF2146621CD4B2B6
:101C3000C4A0FFF7B5FA00BFFFF76EFE00BF214654
:101C4000621CD4B2C6A0FFF7ABFA00BFFFF7DAFC04
:101C500030B100BFC8A0FFF7A3FA00BF00BFFEE786
:101C600000BF2146621CD4B2D0A0FFF799FA00BF92
:101C7000D8A2DAA1DEA0FFF777FE002825D000BFAA
:101C8000DDA0FFF78DFA00BFA648FEF711FD00BFEB
:101C9000E8A0FFF785FA00BFA248FEF709FDFFF7AD
:101CA00059FD00BFE7A0FFF77BFA00BF9D48FEF794
:101CB000FFFCFFF731FE00BFE6A0FFF771FA00BF9F
:101CC000ED48FEF7F5FCFFF7CDF800BF2146621C9A
:101CD000D4B2EAA0FFF764FA00BFF1480068FFF74A
:101CE00053FD00281DD000BFEEA0FFF759FA00BF3A
:101CF0008C48FEF7DDFC00BFCEA0FFF751FA00BF15
:101D00008848FEF7D5FCFFF725FD00BFCDA0FFF703
:101D100047FA00BF8348FEF7CBFCFFF7FDFD00BF8D
:101D2000FEE700BF2146621CD4B2EEA0FFF738FAEE
:101D300000BFF4480068FFF727FD00281DD000BF52
:101D4000F1A0FFF72DFA00BF7648FEF7B1FC00BF07
:101D5000B8A0FFF725FA00BF7248FEF7A9FCFFF70D
:101D6000F9FC00BFB7A0FFF71BFA00BF6D48FEF7F4
:101D70009FFCFFF7D1FD00BFFEE700BF2146621CBC
:101D8000D4B2F1A0FFF70CFA00BF00BF2146621CDD
:101D9000D4B2F4A0FFF704FA00BFF948FEF788FCBC
:101DA00000BFF849F8A0FFF7FBF900BFF548FFF7BF
:101DB0004FFD00281DD000BFD3A0FFF7F1F900BFF1
:101DC0005848FEF775FC00BF9AA0FFF7E9F900BF7D
:101DD0005448FEF76DFCFFF7BDFC00BF99A0FFF76C
:101DE000DFF900BF4F48FEF763FCFFF795FD00BF2A
:101DF000FEE7CDE10D0A000044240008902400080D
:101E00000D0A3E256420D5FDD4DAB5C8B4FD47538C
:101E10004DC4A3BFE920D6D8C6F4C9E8B1B820A103
:101E2000A3A1A3A1A30D0A000D0A3E256420D6D8C4
:101E3000C6F4C9E8B1B8CAA7B0DC20A3ACD5FDD4BC
:101E4000DAB5C8B4FD47534DC4A3BFE920D6D8C600
:101E5000F4C9E8B1B8A1A3A1A3A1A30D0A00000091
:101E60000D0A3E256420D5FDD4DAB5C8B4FD47532C
:101E70004DC4A3BFE9B3F5CABCBBAFA1A3A1A3A145
:101E8000A30D0A000D0A0D0AC4A3BFE9CFECD3A627
:101E9000B2E2CAD4B2BBD5FDB3A3A3A12100000016
:101EA0000D0A0D0AC8F4C4A3BFE9CFE0D3A6D2BB84
:101EB000D6B1B2BBD5FDB3A3A3ACC7EBBCECB2E9C2
:101EC000C4A3BFE9C1ACBDD3CFDFBACDB5E7D4B4AD
:101ED000000000000D0A3E256420D5FDD4DABCECDC
:101EE000B2E2B5E7BBB0BFA8A1A3A1A3A1A30D0A0D
:101EF000000000000D0A0D0ABCECB2E2B2BBB5BD99
:101F0000B5E7BBB0BFA8A3ACC7EBB6CFB5E7BAF394
:101F1000D6D8D0C2B2E5C8EBB5E7BBB0BFA80D0AB2
:101F200000000000A08601000D0A3E256420C8B70D
:101F3000C8CFB9D8B1D5D6AEC7B0B5C4C1ACBDD382
:101F4000210000000D0A3E256420C8B7C8CFB9D8CB
:101F5000B1D5D6AEC7B0B5C4B3A1BEB021000000A4
:101F60000D0A3E256420D6D8D0C2B3F5CABCBBAF9B
:101F700047505253210000000D0A0D0AB3F5CABCA8
:101F8000BBAF47505253CAA7B0DCA3ACC7EBD6D8FF
:101F9000D0C2B8F8C4A3BFE9C9CFB5E7B2A2B8B4FC
:101FA000CEBBBFAAB7A2B0E5000000000D0A3E25D7
:101FB0006420B3A2CAD4BDA8C1A2544350C1B4BDC9
:101FC000D3A3ACC7EBC4CDD0C4B5C8B4FDA1A3A105
:101FD000A3A1A30033373136340000003238643710
:101FE0003765313737332E7A6963702E7669700022
:101FF00032303030000000000D0A0D0A20544350EA
:10200000C1B4BDD3CAA7B0DCA3ACC7EBBCECB2E291
:10201000D5FDC8B7C9E8D6C3B8F7B8F6C4A3BFE9B9
:102020002058585858585858585858585858585868
:10203000000000000D0A0D0A204950C1B4BDD3B6FE
:10204000CFBFAA000D0A0D0A20B9D8B1D5B3A1BEE1
:10205000B00000000D0A0D0A202A2A2A2A2A2A2A5C
:102060002A3573BAF3D7D4B6AFD6D8C6F42A2A2AFB
:102070002A2A2A2A2A2A2A0020A107000D0A3E25F8
:102080006420C1ACBDD3B3C9B9A6A3ACB3A2CAD4B2
:10209000B7A2CBCDCAFDBEDDA1A3A1A3A1A3000021
:1020A000240000200D0A0D0A20544350B7A2CBCDC6
:1020B000CAFDBEDDCAA7B0DCA3ACC7EBBCECB2E284
:1020C000D5FDC8B7C9E8D6C3B8F7B8F6C4A3BFE909
:1020D00020585858585858585858585858585858B8
:1020E000000000000D0A3E256420B3A2CAD4B7A2A6
:1020F000CBCDB5DAB6FECCF5CAFDBEDDA1A3A1A35A
:10210000A1A30000280000200D0A0D0A3E544350F0
:10211000B7A2CBCDCAFDBEDDCAA7B0DCA3ACC7EB6E
:10212000BCECB2E2D5FDC8B7C9E8D6C3B8F7B8F67B
:10213000C4A3BFE9205858585858585858585858A8
:1021400058585858000000000D0A3E256420B7A2D8
:10215000CBCDB5DAB6FECCF5CAFDBEDDB3C9B9A6A6
:10216000000000000D0A3E256420BFAACABCB7A229
:10217000CBCDB5DAC8FDCCF5CAFDBEDD0000000050
:10218000400D0300B50500200D0A0D0A202573003F
:102190000F48FEF78DFA00BF0EA0FFF701F800BF51
:1021A00000BF11A0FEF7FCFF00BF42F21070FEF767
:1021B0007FFAFFF7CFFA00BF0FA0FEF7F1FF00BFD5
:1021C00042F21070FEF774FAFFF7A6FB002070BD14
:1021D00040420F000D0A0D0ABCB4BDABB9D8B1D551
:1021E000CDF8C2E7000000000D0A0D0A4950C1AC4D
:1021F000BDD3B6CFBFAA00000D0A0D0AB9D8B1D51C
:10220000B3A1BEB0000000002DE9F04106460F4624
:102210000024B81B85B259A13046FFF70BF980B1F5
:10222000522D0DDCFEF730F800BF06E0301955499D
:10223000085C55490855601C84B2AC42F6DD00BF0D
:1022400099E052A13046FFF7F5F880B14B2DF7DC4D
:10225000FEF736F8002406E030194A49085C4D497B
:102260000855601C84B2AC42F6DD00BF83E04AA191
:102270003046FFF7DFF880B1DC2D7CDCFEF758F844
:10228000002406E030193F49085C45490855601CA8
:1022900084B2AC42F6DD00BF6DE042A13046FFF7EC
:1022A000C9F880B1DC2D66DCFDF7E0FF002406E014
:1022B00030193449085C3D490855601C84B2AC4271
:1022C000F6DD00BF57E03AA13046FFF7B3F880B122
:1022D000502D50DCFEF702F8002406E030192949A1
:1022E000085C35490855601C84B2AC42F6DD00BF7D
:1022F00041E032A13046FFF79DF880B12C2D3ADC49
:10230000FDF7FAFF002406E030191E49085C2D494C
:102310000855601C84B2AC42F6DD00BF2BE02AA158
:102320003046FFF787F880B1D22D24DCFDF7BAFFE5
:10233000002406E030191349085C25490855601C43
:1023400084B2AC42F6DD00BF15E022A13046FFF7B3
:1023500071F880B1D22D0EDCFDF7DCFF002406E021
:1023600030190849085C1D490855601C84B2AC420C
:10237000F6DD00BF00BFBDE8F081000024474E47F6
:10238000474100003C0200203C04002024474E4707
:10239000534100008E04002024475047535600004C
:1023A000D90400202442444753560000B5050020BC
:1023B00024474E524D4300009106002024474E56BC
:1023C00054470000E106002024474E474C4C0000D3
:1023D0000D07002024474E5A44410000DF0700202B
:1023E0002DE9F041002400250026002700BF00BF92
:1023F00000BF1EE01248005D242801D101272546B8
:102400000F48005D0D2812D1601C80B204460C49B3
:10241000085C0A280BD12646701B0A2807DD37B155
:1024200000BF00BF31462846FFF7EEFE0027601CC4
:1024300084B2B4F5007FDDDB00BF00BFBDE8F081F2
:102440003C0200200D0A0D0A2A2A2A2A2A2A2A2AB0
:102450002A2A2A2A2A2A2A2A2A2A2A2A2A2A2A2ADC
:102460002A2A2A2A2A2A2A2A2A2A2A2A2A2A2A2ACC
:102470002A2A2A2A2A2A2A2A2A2A2A2A2A2A2A2ABC
:102480002A2A2A2A2A2A2A2A2A2A2A2A0D0A00003D
:102490000D0A0D0A2A2A2A2A2A2A2A2A2A2A2A2A16
:1024A0002A2A2A2A2A2A2A2A2A2A2A47534DC4A310
:1024B000BFE9544350CAD5B7A2CABEC0FDB3CCD001
:1024C000F22A2A2A2A2A2A2A2A2A2A2A2A2A2A2AA4
:1024D0002A2A2A2A2A2A2A2A0D0A00000D0A20312D
:1024E0002E2053494D383030412047534DC4A3BFAF
:1024F000E9544350CAFDBEDDC9CFB4ABB9A6C4DCB4
:10250000B2E2CAD4000000000D0A20322E20534946
:102510004D383030412047534DC4A3BFE954435098
:10252000CAFDBEDDC9CFB4ABB9A6C4DCB2E2CAD421
:102530000000000054250008000000203C000000BE
:10254000E8110008902500083C0000207C0C0000E9
:10255000F81100080095BA0A000000000000000011
:102560000102030406070809000000000102030439
:102570000102030406070809DC24000808250008F6
:10258000010000000000000000000000000000004A
:04000005080001AD41
:00000001FF
