:020000040800F2
:1000000040080020C1010008690A0008390A0008F8
:10001000650A000859020008C3100008000000002B
:10002000000000000000000000000000690C000853
:1000300015050008000000001D0B0008D90D000880
:10004000DB010008DB010008DB010008DB01000820
:10005000DB010008DB010008DB010008DB01000810
:10006000DB010008DB010008DB010008DB01000800
:10007000DB010008DB010008DB010008DB010008F0
:100080005D020008DB010008DB010008DB0100085D
:10009000DB010008DB010008DB010008DB010008D0
:1000A000DB010008DB010008DB010008DB010008C0
:1000B000DB010008DB010008DB010008DB010008B0
:1000C000DB010008DB010008DB010008DB010008A0
:1000D000DB010008C90E0008DB010008DB01000895
:1000E000DB010008DB010008DB010008DB01000880
:1000F000DB010008DB010008DB010008DB01000870
:10010000DB010008DB010008DB010008DB0100085F
:10011000DB010008DB010008DB010008DB0100084F
:10012000DB010008DB010008DB010008DB0100083F
:10013000DB010008DB010008DB010008DB0100082F
:10014000DB010008DB010008DB010008DB0100081F
:10015000DB010008DB010008DB010008F10E0008EC
:10016000DB010008DB010008DB010008DB010008FF
:10017000DB010008DB010008DB010008DB010008EF
:10018000DB010008DB010008DB010008DB010008DF
:10019000DB010008DB010008DB010008DB010008CF
:1001A000DB010008DB010008DB010008DFF80CD0F0
:1001B00000F040F800480047491A000840080020B5
:1001C0000648804706480047FEE7FEE7FEE7FEE7F1
:1001D000FEE7FEE7FEE7FEE7FEE7FEE7490E000862
:1001E000AD01000830B505462A460B4612F8010B52
:1001F00013F8014B08B1A042F8D01CB1002802D07E
:100200006D1CF1E7284630BD30B50B460146002095
:100210002022012409E021FA02F59D4205D303FAC8
:1002200002F5491B04FA02F52844151EA2F1010249
:10023000F1DC30BD064C074D06E0E06840F00103FC
:1002400094E8070098471034AC42F6D3FFF7B2FFAA
:10025000042100082421000800BFFEE710B500F0CB
:1002600095FA10BD0246094B9A4201D2084801E0B6
:100270000648103801F000531BB1064B0B40C36019
:1002800002E0044B0B4083607047000010640240A2
:10029000006002407D0F7D0F21B1026842F0010233
:1002A000026003E0026822F0010202607047000071
:1002B000016821F00101016000210160416081605D
:1002C000C1600161212141614A49884204D13D2137
:1002D000484A103A91608CE046491831884205D16D
:1002E0004FF47461434A103A916082E041493031E1
:1002F000884205D14FF474113E4A103A916078E07B
:100300003C494831884205D14FF07461394A103A6E
:1003100091606EE037496031884204D13649354AF0
:10032000103AD16065E033497831884204D13349CD
:10033000304A103AD1605CE02E499031884204D1B5
:100340002F492C4A103AD16053E02A49A8318842FB
:1003500005D14FF03D51274A103AD16049E0294973
:10036000884204D13D21274A083A116041E02549DD
:100370001831884205D14FF47461224A083A11605D
:1003800037E020493031884205D14FF474111D4ABD
:10039000083A11602DE01B494831884205D14FF0E1
:1003A0007461184A083A116023E0164960318842A6
:1003B00004D11149134A121F11601AE01149783112
:1003C000884204D10D490F4A121F116011E00D49F6
:1003D0009031884204D10A490A4A121F116008E08C
:1003E0000849A831884204D14FF03D51054A121FF7
:1003F00011607047106002403D000020400F002057
:1004000000003D2010640240014600200A6802F00E
:1004100001020AB1012000E00020704770B50246D9
:10042000002000240025124EB24201D2114B01E0FF
:100430000F4B103B104E0E4036B11E2606EAD1245B
:10044000166806EA040502E0566906F0800501F028
:1004500000560EB15C6800E01C68084E344004EAA7
:10046000010616B10DB1012000E0002070BD0000B2
:1004700010640240006002403C0F3C0F7D0F7D0F76
:1004800010B501F080034BB122B1436943F0800302
:10049000436103E0436923F08003436180290BD06B
:1004A0002AB1036801F01E042343036004E00368DB
:1004B00001F01E04A343036010BD000010B500222C
:1004C0000268134B1A40CC680B6823434C692343E2
:1004D0008C692343CC6923430C6A23434C6A23432E
:1004E0008C6A23434C6B23438C6B23431A43026077
:1004F000426922F00702D1E90B3423431A434261D7
:100500000B6943604B6883608B68C36010BD00005B
:100510003F801CF07047000000B587B001210846FD
:1005200000F0FEFA0121102000F01AFB00208DF8E7
:100530001A0001208DF81B0002208DF819008DF89B
:1005400018000002059005A91B4800F045F802209C
:100550008DF818004002059005A9174800F03CF8F6
:1005600007220A21144800F07FF8072209211248C7
:1005700000F07AF84FF4E13001900020ADF8080067
:10058000ADF80A00ADF80C00ADF810000C20ADF885
:100590000E0001A9094800F021FD00F066FA0122D1
:1005A00040F22551054800F0F3FC0121034800F01A
:1005B000A3FC07B000BD0000000002400010014095
:1005C00001B504490098086000BF0248006800288F
:1005D000FBD108BD30000020F0B50A460021002301
:1005E000002400BF3DE0012505FA01F3156805EA86
:1005F00003049C4234D105684F000326BE40B54336
:10060000056015794E00B5400668354305601579DB
:10061000012D02D01579022D16D185684F000326D1
:10062000BE40B543856055794E00B5408668354378
:100630008560456801268E40B543456045689679DA
:100640008E40B6B235434560C5684F000326BE40B4
:10065000B543C560D5794E00B540C6683543C56021
:10066000491C1029BFD3F0BDF0B5002300244D076D
:10067000ED0E02FA05F3CE1000F1200555F82650D4
:100680004E07F70E0F26BE40B543CF1000F12006EF
:1006900046F82750CE1000F1200555F8265045EABF
:1006A0000304CE1000F1200545F82640F0BD10B53A
:1006B00000F092F800F002F810BD000000B58FB015
:1006C0000121480500F02CFA2248FFF7F1FD00BF98
:1006D0002048FFF799FE0028FAD14FF00060009003
:1006E0001D4801901D480290002003904FF40070B7
:1006F0000490002005904FF4806006900020079041
:1007000008904FF48070099000020A9000200B902E
:1007100003200C9000200D900E9069460D48FFF7C5
:10072000CDFE00F01DF8012218210A48FFF7A8FEAF
:1007300001210848FFF7B0FD00BF0648FFF764FE3F
:100740000128FAD1012240210348001F00F0E0FBFC
:100750000FB000BD88600240044400403C0200200D
:1007600008B54FF4C06000F0CFF910208DF80000FC
:1007700001208DF8010000208DF8020001208DF885
:100780000300684600F084F908BD000010B50D496B
:100790000D48FFF743FE38B101200C4908700949A4
:1007A0000948FFF75FFD0BE009490748FFF736FEF0
:1007B00030B101200749087005490348FFF752FD91
:1007C00010BD000000440020886002403600002078
:1007D000008800203500002000B587B001210846C0
:1007E00000F09EF90121480400F0AAF90722032134
:1007F0001B48FFF739FF072202211948FFF734FF92
:1008000000208DF81A0001208DF81B0002208DF8C1
:1008100018008DF819000420059005A91048FFF76D
:10082000DBFE0820059005A90D48FFF7D5FE4FF423
:10083000164001900020ADF80800ADF80A00ADF8B0
:100840000C00ADF810000C20ADF80E0001A9054811
:1008500000F0C4FB0121034800F04EFB07B000BDCF
:10086000000002400044004008B54FF4E06000F092
:100870004BF947208DF8000001208DF801008DF81C
:1008800002008DF80300684600F002F908BD000080
:1008900000B587B00121042000F042F90121202099
:1008A00000F05EF9082207212148FFF7DDFE08224B
:1008B00006211F48FFF7D8FE00208DF81A000120FE
:1008C0008DF81B0002208DF81800402005900220B2
:1008D0008DF8190005A91648FFF77EFE80200590C7
:1008E00002208DF8180005A91148FFF775FE4FF496
:1008F000E13001900020ADF80800ADF80A00ADF835
:100900000C00ADF810000C20ADF80E0001A909484C
:1009100000F064FBFFF7A8FF012240F225510548D3
:1009200000F036FB0121034800F0E6FA07B000BDF5
:1009300000080240001401400FB430B585B009A88A
:1009400000906FE0089800785C281CD10898401C43
:10095000089000786E2809D072280FD10D213548F3
:1009600000F0ABFB0898401C08900BE00A213148CE
:1009700000F0A3FB0898401C089003E00898401C76
:10098000089000BF47E00898007825283CD10898D7
:10099000401C08900078642818D0732833D1009840
:1009A00010C800900BE02178224800F086FB00BFC1
:1009B0008021204800F0B5FA0028F9D0641C207886
:1009C0000028F0D10898401C08901CE0009820C82E
:1009D00000900A2201A9284601F004F801AC0BE0BE
:1009E0002178144800F069FB00BF8021114800F015
:1009F00098FA0028F9D0641C20780028F0D10898D3
:100A0000401C089000BF06E0089810F8011B0890F1
:100A1000084800F052FB00BF8021064800F081FA30
:100A20000028F9D00898007800288BD105B030BC98
:100A30005DF814FB0014014000BFFEE710B500BFD5
:100A400000BF00F077FC4FF47A7202A102A000F020
:100A5000A1FC10BD4F4B000041542B434E554D0D92
:100A60000000000000BFFEE7704708B54FF4A0602B
:100A700000F04AF825208DF8000001208DF80100D3
:100A80008DF802008DF80300684600F001F808BDFB
:100A900070B5002100230F22C4781CB3174C2468C2
:100AA00004F4E064C4F5E064C4F30721C1F1040474
:100AB000E3B20A4144789C40E1B284781440214377
:100AC0000C07210E0E4C05786155047804F01F05C3
:100AD0000124AC4005786D11AD0005F1E025C5F8A5
:100AE000004109E0047804F01F050124AC40054DE5
:100AF0000678761145F8264070BD00000CED00E048
:100B000000E400E080E100E002490143024A116094
:100B1000704700000000FA050CED00E0704700008F
:100B200029B1064A12680243044B1A6004E0034AE2
:100B300012688243014B1A6070470000303802404F
:100B400029B1064A12680243044B1A6004E0034AC2
:100B500012688243014B1A6070470000403802401F
:100B600029B1064A12680243044B1A6004E0034AA2
:100B700012688243014B1A607047000044380240FB
:100B8000F0B5002100220024022500260223324F66
:100B90003F6807F00C0121B1042905D0082937D19D
:100BA00005E02E4F076036E02D4F076033E02A4FF7
:100BB0003F1F3F68C7F38056274F3F1F3F6807F02E
:100BC0003F036EB1264FB7FBF3F7DFF88CC0ACF1F3
:100BD000040CDCF800C0CCF3881C07FB0CF40CE020
:100BE0001E4FB7FBF3F7DFF870C0ACF1040CDCF874
:100BF00000C0CCF3881C07FB0CF4174F3F1F3F6865
:100C0000C7F301477F1C7D00B4FBF5F7076002E0E6
:100C1000124F076000BF00BF0F4F3F6807F0F001A1
:100C20000909104F7A5C0768D74047600A4F3F6850
:100C300007F4E051890A0B4F7A5C4768D740876018
:100C4000054F3F6807F46041490B064F7A5C4768DF
:100C5000D740C760F0BD0000083802400024F4000F
:100C600040787D0114000020704700000CB5002082
:100C7000019000904148006840F480303F4908608E
:100C800000BF3E48006800F4003000900198401C0E
:100C90000190009818B90198B0F5A04FF1D13748EC
:100CA000006800F4003010B10120009001E0002045
:100CB00000900098012860D130484030006840F032
:100CC00080502E49403108602D48006840F4404073
:100CD0002B49086029480830006828490831086015
:100CE0000846006840F4004008600846006840F488
:100CF000A05008602348091F0860081F006840F0E2
:100D00008070091F086000BF1C48006800F0007078
:100D10000028F9D01A48006840F48030184908606B
:100D200000BF1748406800F480300028F9D014480C
:100D3000006840F400301249086000BF1048406865
:100D400000F400300028F9D040F205700E49086028
:100D50000A480830006820F003000849083108609C
:100D60000846006840F00200086000BF03480830F1
:100D7000006800F00C000828F8D10CBD00380240D3
:100D800000700040195A4007003C0240012080F3E7
:100D9000138800BF00BF00BF00BF00BF00BFBFF38C
:100DA0004F8F00BF00BF00BF0948006800F4E0603B
:100DB00008490843001D0649086000BF00BF00BF86
:100DC000BFF34F8F00BF00BF00BF00E000BFFDE7D3
:100DD0000CED00E00000FA0510B500F069F810BD58
:100DE00030B515480068154AB0FBF2F1481EB0F165
:100DF000807F01D301201BE0481E4FF0E0225061AC
:100E000050170F22002807DA13071D0E0C4B00F0B5
:100E10000F04241F1D5503E013071C0E094B1C541F
:100E200000BF00204FF0E0229061072010610020F9
:100E300008B100BFFEE730BD00000020A086010021
:100E400018ED00E000E400E010B51548006840F43B
:100E50007000134908601348006840F00100114910
:100E6000086000200F49083108600E4800680E49EC
:100E700008400C4908600D48091D0860081F0068FB
:100E800020F48020091F0860002006490C3108600A
:100E9000FFF7ECFE4FF0006001498039086010BD9B
:100EA00088ED00E000380240FFFFF6FE103000241D
:100EB0000448006820B103480068401E01490860EA
:100EC000704700003000002010B540F22551064860
:100ED00000F034F838B1044800F0EAF8C4B2214612
:100EE00002A000F0F1F810BD0010014025630000E1
:100EF00010B500F0FFF910BD21B1828942F4005213
:100F0000828104E082894DF6FF731A408281704726
:100F10001AB1838A0B43838202E0838A8B438382E4
:100F2000704702460020B1F5007F00D100BF138852
:100F30000B400BB1012000E00020704770B5024665
:100F4000002400230025002040F66A16B14200D19B
:100F500000BFC1F3421501F01F03012606FA03F397
:100F6000012D02D19689334006E0022D02D1168A66
:100F7000334001E0968A33400C12012606FA04F44D
:100F80001688344013B10CB1012000E0002070BD80
:100F9000F0B50346002400260025002040F66A171D
:100FA000B94200D100BF1846C1F3421401F01F0638
:100FB000012707FA06F5012C01D10C3004E0022CC0
:100FC00001D1103000E014301AB107682F430760D8
:100FD00002E00768AF430760F0BD00002DE9FF475E
:100FE00005460E460024A14600BFA046B08900B1C8
:100FF00000BF2C8A24F44054F08804432C82AC892E
:1010000041F20C608443B0883189084371890843F8
:101010000443AC81AC8A24F44074B0890443AC82AC
:101020006846FFF7ADFD2048854202D01F48854243
:1010300002D1DDF80C9001E0DDF80890A88900F4F9
:10104000004040B109EBC90000EB091031684900CC
:10105000B0FBF1F707E009EBC90000EB09103168BC
:101060008900B0FBF1F76420B7FBF0F00401200920
:10107000642101FB1078A88900F4004040B13220BF
:1010800000EBC800B0FBF1F000F00700044308E0FB
:10109000322000EB08106421B0FBF1F000F00F00EB
:1010A00004432C81BDE8FF8700100140001401407B
:1010B00001468888C0F308007047C1F308028280A7
:1010C000704700BFFEE700000FB4054B10B503A941
:1010D000044A029800F02CF810BC5DF814FB0000E4
:1010E0005D130008380000200FB4084B10B504A9A8
:1010F00002AA039800F01CF8044602A9002000F0A0
:10110000F3F8204610BC5DF814FB0000E91200085B
:1011100002E008C8121F08C1002AFAD170477047C0
:10112000002001E001C1121F002AFBD1704700001E
:101130002DE9FF4F8BB09A460F460546002606E084
:1011400025280BD052460D9990476D1C761C2878A7
:101150000028F5D10FB03046BDE8F08F0024A0463E
:101160000122604900E0044315F8013F203B02FAE8
:1011700003F00842F7D128782E2817D115F8010F6F
:1011800044F004042A280ED06FF02F022878A0F132
:10119000300109290AD808EB880102EB410100EB74
:1011A00001086D1CF2E757F8048B6D1C287869283C
:1011B0003ED006DC0028CDD063280BD0642804D1B3
:1011C00036E0732810D075284BD052460D999047C1
:1011D000761C85E017F8040B8DF8000000208DF8D0
:1011E0000100E946012003E057F8049B4FF0FF306F
:1011F00061074FF0000401D40AE0641C44450DDA95
:101200008442FADB19F804100029F6D106E0641CC8
:101210008442FCDB19F804100029F8D1264404E0CC
:1012200019F8010B52460D999047641EF8D257E009
:1012300001CF4FF00A0B002802DA40422D2102E0D4
:10124000210504D52B218DF82410012103E0E107AD
:1012500005D02021F7E70DF1200908910CE00021CD
:10126000F9E701CF4FF00A0BF9E75946FEF7CCFF3B
:1012700001F1300209F8012D0028F6D1ADEB09008B
:1012800000F1200B600701D44FF00108D84502DDC2
:10129000A8EB0B0000E000208046002406E009A82F
:1012A0005246005D0D999047641C761C0898844254
:1012B000F5DB04E0302052460D999047761CB8F1DA
:1012C0000001A8F10108F5DC05E019F8010B524610
:1012D0000D999047761CBBF10001ABF1010BF4DCDA
:1012E0006D1C34E7092801000A68531C0B6010705C
:1012F0007047000010B50C480078B0F5007F11DA97
:1013000040F225510948FFF70CFE58B10748FFF796
:10131000CFFE0749044A1278885403480078401CDD
:101320000149087010BD0000340000200014014085
:101330003C00002040F201200021064A117005E027
:101340000022411E89B20846034B5A540028F7D1A7
:1013500070470000340000203C00002070B50446B7
:101360000D46E1B20548FFF7A8FE00BF8021034803
:10137000FFF7D7FD0028F9D0204670BD00100140CE
:101380000146024800780870014870473400002088
:101390003C00002070B504460D46164600BF00BF55
:1013A000FFF7C8FF21460BA0FFF7C6FA00BF224691
:1013B000412109A0FFF788FE00BF0DB9002070BDD4
:1013C000642106FB01F0FFF7FBF8284600F018F84F
:1013D000F5E70000257300000D0A3C3C2D47534DF6
:1013E0002D44454255472D3E3E205B25645DB7A206
:1013F000CBCDC3FCC1EE3A2D2D2D3E257300000050
:10140000F8B5054600BF00BF6846FFF7B9FF0646BE
:1014100000209DF80010705400BF324616211A4873
:10142000FFF752FE00BF0024002715E0285D40B9F9
:1014300000BF2A46212115A0FFF746FE00BF00206D
:10144000F8BDE019305C295D884202D1601CC4B24D
:1014500002E0781CC7B20024E0199DF80010884211
:10146000E4DB285D38B900BF322115A0FFF72CFE60
:1014700000BF0020E4E700BF35211E48FFF724FE2F
:1014800000BF0120DCE70000602000080D0A3C3CA2
:101490002D47534D2D44454255472D3E3E205B255B
:1014A000645DB7B5BBD8D6B55B25735DC6A5C5E48D
:1014B000B3C9B9A6202047534D5F5452554500008B
:1014C0000D0A3C3C2D47534D2D44454255472D3E7A
:1014D0003E205B25645DB7B5BBD8D6B5D7EEBAF371
:1014E000C6A5C5E4B3C9B9A62047534D5F545255AC
:1014F00045000000A820000810B500BF00BF1DA0D7
:10150000FFF7E2FDFFF716FF4FF47A721FA120A04C
:10151000FFF740FF08B1012010BD21A0FFF7D4FD67
:10152000FFF708FF4FF47A7218A123A0FFF732FFEC
:1015300008B10120F0E7FFF7FDFE26A0FFF7C4FD8C
:101540004FF47A7211A12AA0FFF724FF08B10120FD
:10155000E2E72AA0FFF7B8FDFFF7ECFE4FF47A723E
:101560000AA133A0FFF716FF08B10120D4E700203D
:10157000D2E700000D0A203E3E3120D6BB47505234
:1015800053B9A4D7F7C0E0D0CD0000004F4B000006
:1015900041542B4347434C4153533D2242220D00BB
:1015A0000D0A203E3E3220B6A8D2E5504450D2C6A5
:1015B000B6AFB3A1BEB0000041542B434744434FE4
:1015C0004E543D312C224950222C22434D4E45543D
:1015D000220D00000D0A203E3E3320BCA4BBEE4786
:1015E000505253B9A6C4DC20BBF1C8A14950000039
:1015F00041542B43474154543D310D000D0A203EC8
:101600003E3420C9E8D6C3C4A3BFE9C1ACBDD3B73B
:10161000BDCABDCEAA47505253C1ACBDD32CBDD319
:10162000C8EBB5E3CEAAA1B0434D4E4554A1B100DD
:1016300041542B434950435347503D312C22434D95
:101640004E4554220D00000010B500BF00BFFFF74B
:1016500071FEC82204A105A0FFF79CFE08B101207D
:1016600010BD0020FCE700004F4B000041542B430D
:101670004950434C4F53453D310D000038B50446A9
:101680001A2000900025FFF755FE4FF4FA721BA1B7
:101690001BA0FFF77FFE002826D121461BA0FFF7E5
:1016A0004BF900BF224640F2071119A0FFF70CFDCD
:1016B00000BFFFF73FFE642200216846FFF76AFE85
:1016C0001EA0FFF701FD09E0681CC0B20546C8284E
:1016D00000DD0AE042F21070FEF772FF1DA0FFF776
:1016E0008FFE0028F0D138BD00BF1B2000900022E3
:1016F00011466846FFF74EFE0120F4E73E00000069
:1017000041542B43495053454E440D00257300006E
:101710000D0A3C3C2D47534D2D44454255472D3E27
:101720003E205B25645DB7A2CBCDD7D6B7FBB4AE68
:101730003A3DA1B02573A1B1000000000D0A203E82
:101740003E20BCECB2E2CAC7B7F1B7A2CBCDCDEA1E
:10175000B3C9000053454E44204F4B0038B50446F2
:101760001A2000900025FFF7E5FD4FF4FA721BA147
:101770001BA0FFF70FFE002826D121461BA0FFF774
:10178000DBF800BF224640F22B1119A0FFF79CFCAA
:1017900000BFFFF7CFFD642200216846FFF7FAFD86
:1017A0001EA0FFF791FC09E0681CC0B20546C828DE
:1017B00000DD0AE042F21070FEF702FF1DA0FFF705
:1017C0001FFE0028F0D138BD00BF1B200090002272
:1017D00011466846FFF7DEFD0120F4E73E000000F9
:1017E00041542B43495053454E440D00257300008E
:1017F0000D0A3C3C2D47534D2D44454255472D3E47
:101800003E205B25645DB7A2CBCDD7D6B7FBB4AE87
:101810003A3DA1B02573A1B1000000000D0A203EA1
:101820003E20BCECB2E2CAC7B7F1B7A2CBCDCDEA3D
:10183000B3C9000053454E44204F4B0010B500245F
:1018400000BF00BFFFF776FD002211460AA0FFF798
:10185000A1FD09E0601CC0B20446322801DD012070
:1018600010BD0848FEF7ACFE07A0FFF7C9FD002831
:10187000F0D100BFF4E7000041542B4349505348D6
:1018800055540D00A08601004F4B0000F0B599B0F3
:1018900004460D4616460027224619A16846FFF762
:1018A00023FC4FF47A721CA16846FFF773FD10B158
:1018B000012019B0F0BDFFF73DFD33462A4617A1C0
:1018C0006846FFF711FC4FF47A7200216846FFF773
:1018D00061FD1AA0FFF7F8FB0AE0781CC0B20746CA
:1018E000C82801DD0120E4E742F21070FEF768FE2F
:1018F00018A0FFF785FD0028EFD100BFD9E7000051
:1019000041542B434C504F52543D22544350222CAF
:10191000222573220D0000004F4B000041542B4341
:10192000495053544152543D22544350222C2225B5
:1019300073222C222573220D000000000D0A203E88
:101940003E20BCECB2E2CAC7B7F1BDA8C1A2C1AC8F
:10195000BDD30000434F4E4E454354204F4B000033
:1019600038B500BF00BFFFF7E5FCFEF791FF4FF46D
:101970007A7210A110A0FFF70DFD08B1012038BD4B
:101980006846FFF7FDFC04469DF8000008B90120F9
:10199000F5E70CA12046FEF725FC08B10020EEE794
:1019A0000CA12046FEF71EFC08B10020E7E701204D
:1019B000E5E700004F4B000041542B43474D4D0DD0
:1019C0000000000053494D434F4D5F47534D3930A0
:1019D0003041000053494D434F4D5F53494D38301E
:1019E00030000000F0B503460D4616460027294694
:1019F0000A2E03D0002008702846F0BD33B93020ED
:101A000001F8010B002008702846F6E7002B03DAE6
:101A10002D2001F8010B5B4242F210720DE093FBA6
:101A2000F2F404B937B104F1300001F8010B04FB02
:101A3000123301270A2092FBF0F2002AEFDC00208B
:101A400008702846D9E70000ADF5007D0026002487
:101A5000FEF762FDFFF7C4F9FEF729FE86A0FFF747
:101A600033FB85A0FFF730FB83A0FFF72DFB82A09F
:101A7000FFF72AFB8248FFF727FB8248FFF724FB8A
:101A80007F48FFF721FB05E07FA0FFF71DFB84A047
:101A9000FFF71AFBFFF764FF0028F5D12146621C0F
:101AA000D4B28BA0FFF710FB0AE0701CC0B2064650
:101AB000142802DD8FA0FFF707FB9948FEF780FD91
:101AC000FEF7BCFF0028F0D19548FEF779FD2146CE
:101AD000621CD4B293A0FFF7F7FAFFF7B5FD904868
:101AE000FEF76EFD2146621CD4B295A0FFF7ECFA1A
:101AF000FFF7A4FE2146621CD4B298A0FFF7E4FAD7
:101B0000FFF7FAFC20B19BA0FFF7DEFA00BFFEE76B
:101B10002146621CD4B2A3A0FFF7D6FAABA2ADA1B6
:101B2000B1A0FFF7B3FE00281DD0B1A0FFF7CCFA9B
:101B30007B48FEF745FDBCA0FFF7C6FA7848FEF7E4
:101B40003FFDFFF781FDBCA0FFF7BEFA7448FEF72A
:101B500037FDFFF773FEBBA0FFF7B6FAC248FEF7EA
:101B60002FFDFFF713F92146621CD4B2BFA0FFF787
:101B7000ABFAC7480068FFF781FD002817D0C5A061
:101B8000FFF7A2FA6648FEF71BFDA7A0FFF79CFA35
:101B90006348FEF715FDFFF757FDA7A0FFF794FA7E
:101BA0005F48FEF70DFDFFF749FE00BFFEE7214647
:101BB000621CD4B2C6A0FFF787FACD480068FFF7D1
:101BC0005DFD002817D0CBA0FFF77EFA5448FEF742
:101BD000F7FC95A0FFF778FA5148FEF7F1FCFFF704
:101BE00033FD95A0FFF770FA4D48FEF7E9FCFFF7CB
:101BF00025FE00BFFEE72146621CD4B2CCA0FFF751
:101C000063FA2146D1A0FFF75FFA33E0D648FEF72A
:101C1000D7FC002500BF03E000200DF805006D1C77
:101C2000B5F5007FF8DB002504E0D048405D0DF8F5
:101C300005006D1CB5F5FF7FF7DD6846FFF78EFDEB
:101C4000B8B1ACA0FFF740FA3548FEF7B9FC76A072
:101C5000FFF73AFA3248FEF7B3FCFFF7F5FC76A03F
:101C6000FFF732FA2E48FEF7ABFCFFF7E7FD00BFA7
:101C7000FEE700BFCAE700000D0A0D0A00000000E1
:101C8000701F0008BC1F00080D0AC4A3BFE9CFECF9
:101C9000D3A6B2E2CAD4B2BBD5FDB3A3A3A121009F
:101CA0000D0AC8F4C4A3BFE9CFE0D3A6D2BBD6B116
:101CB000B2BBD5FDB3A3A3ACC7EBBCECB2E9C4A3E4
:101CC000BFE9C1ACBDD3CFDFBACDB5E7D4B4000016
:101CD0000D0A3E256420D5FDD4DAB5C8B4FD4753BE
:101CE0004DC4A3BFE9B3F5CABCBBAFA1A3A1A3A1D7
:101CF000A30D0A000D0ABCECB2E2B2BBB5BDB5E75C
:101D0000BBB0BFA8A3ACC7EBB6CFB5E7BAF3D6D884
:101D1000D0C2B2E5C8EBB5E7BBB0BFA80D0A000062
:101D2000A08601000D0A3E256420C8B7C8CFB9D8E7
:101D3000B1D5D6AEC7B0B5C4C1ACBDD3210000008B
:101D40000D0A3E256420C8B7C8CFB9D8B1D5D6AEE4
:101D5000C7B0B5C4B3A1BEB0210000000D0A3E2536
:101D60006420D6D8D0C2B3F5CABCBBAF47505253DB
:101D7000210000000D0AB3F5CABCBBAF4750525357
:101D8000CAA7B0DCA3ACC7EBD6D8D0C2B8F8C4A3FE
:101D9000BFE9C9CFB5E7B2A2B8B4CEBBBFAAB7A25C
:101DA000B0E500000D0A3E256420B3A2CAD4BDA848
:101DB000C1A2544350C1B4BDD3A3ACC7EBC4CDD072
:101DC000C4B5C8B4FDA1A3A1A3A1A3003337313684
:101DD00034000000323864373765313737332E7AB4
:101DE0006963702E76697000323030300000000078
:101DF0000D0A20544350C1B4BDD3CAA7B0DCA3AC74
:101E0000C7EBBCECB2E2D5FDC8B7C9E8D6C3B8F79A
:101E1000B8F6C4A3BFE920585858585858585858CD
:101E200058585858585800000D0A204950C1B4BDA0
:101E3000D3B6CFBFAA0000000D0A20B9D8B1D5B3E0
:101E4000A1BEB0000D0A202A2A2A2A2A2A2A2A35C7
:101E500073BAF3D7D4B6AFD6D8C6F42A2A2A2A2A18
:101E60002A2A2A2A2A00000020A107000D0A3E255E
:101E70006420C1ACBDD3B3C9B9A6A3ACB3A2CAD4C4
:101E8000B7A2CBCDCAFDBEDDA1A3A1A3A1A3000033
:101E9000240000200D0A20544350B7A2CBCDCAFD28
:101EA000BEDDCAA7B0DCA3ACC7EBBCECB2E2D5FD8B
:101EB000C8B7C9E8D6C3B8F7B8F6C4A3BFE9205875
:101EC0005858585858585858585858585858000042
:101ED0000D0A3E256420B3A2CAD4B7A2CBCDB5DA91
:101EE000B6FECCF5CAFDBEDDA1A3A1A3A1A300004F
:101EF000280000200D0A3E544350B7A2CBCDCAFDA6
:101F0000BEDDCAA7B0DCA3ACC7EBBCECB2E2D5FD2A
:101F1000C8B7C9E8D6C3B8F7B8F6C4A3BFE9205814
:101F200058585858585858585858585858580000E1
:101F30000D0A3E256420B7A2CBCDB5DAB6FECCF5AE
:101F4000CAFDBEDDB3C9B9A6000000000D0A3E25DA
:101F50006420BFAACABCB7A2CBCDB5DAC8FDCCF508
:101F6000CAFDBEDD00000000400D03003C02002061
:101F70000D0A2A2A2A2A2A2A2A2A2A2A2A2A2A2AFE
:101F80002A2A2A2A2A2A2A2A2A2A2A2A2A2A2A2AB1
:101F90002A2A2A2A2A2A2A2A2A2A2A2A2A2A2A2AA1
:101FA0002A2A2A2A2A2A2A2A2A2A2A2A2A2A2A2A91
:101FB0002A2A2A2A2A2A0D0A000000000D0A2A2AA3
:101FC0002A2A2A2A2A2A2A2A2A2A2A2A2A2A2A2A71
:101FD0002A2A2A2A2A47534DC4A3BFE9544350CA88
:101FE000D5B7A2CABEC0FDB3CCD0F22A2A2A2A2A6B
:101FF0002A2A2A2A2A2A2A2A2A2A2A2A2A2A2A2A41
:102000002A2A0D0A000000000D0A20312E20534913
:102010004D383030412047534DC4A3BFE95443509D
:10202000CAFDBEDDC9CFB4ABB9A6C4DCB2E2CAD426
:10203000000000000D0A20322E2053494D38303068
:10204000412047534DC4A3BFE9544350CAFDBEDDF0
:10205000C9CFB4ABB9A6C4DCB2E2CAD40000000058
:102060000D0A3C3C2D47534D2D44454255472D3ECE
:102070003E205B25645DB7B5BBD8CAFDBEDD203C04
:102080002D2D2D0D0A2D2D2D2D2D2D2D2D2D2D2DC3
:102090002D2D2D2D0D0A25732D2D2D2D2D2D2D2D75
:1020A0002D2D2D2D2D2D2D000D0A3C3C2D47534D52
:1020B0002D44454255472D3E3E205B25645DB7B516
:1020C000BBD8D6B5C6A5C5E4CAA7B0DC20585858B9
:1020D0005858585858585858585858585858585880
:1020E0005858585858585858585858585858585870
:1020F0005858585858582047534D5F46414C5345FF
:102100000000000024210008000000203C00000026
:1021100010110008602100083C00002004080000A5
:10212000201100080095BA0A00000000000000001D
:10213000010203040607080900000000010203046D
:1021400001020304060708090820000834200008DB
:10215000010000000000000000000000000000007E
:04000005080001AD41
:00000001FF
